{
  "_format": "hh-sol-artifact-1",
  "contractName": "ArrowsMetadata",
  "sourceName": "contracts/libraries/ArrowsMetadata.sol",
  "abi": [
    {
      "inputs": [
        {
          "components": [
            {
              "components": [
                {
                  "internalType": "uint16[6]",
                  "name": "composites",
                  "type": "uint16[6]"
                },
                {
                  "internalType": "uint8[5]",
                  "name": "colorBands",
                  "type": "uint8[5]"
                },
                {
                  "internalType": "uint8[5]",
                  "name": "gradients",
                  "type": "uint8[5]"
                },
                {
                  "internalType": "uint8",
                  "name": "divisorIndex",
                  "type": "uint8"
                },
                {
                  "internalType": "uint32",
                  "name": "epoch",
                  "type": "uint32"
                },
                {
                  "internalType": "uint16",
                  "name": "seed",
                  "type": "uint16"
                },
                {
                  "internalType": "uint24",
                  "name": "day",
                  "type": "uint24"
                }
              ],
              "internalType": "struct IArrows.StoredArrow",
              "name": "stored",
              "type": "tuple"
            },
            {
              "internalType": "bool",
              "name": "isRevealed",
              "type": "bool"
            },
            {
              "internalType": "uint256",
              "name": "seed",
              "type": "uint256"
            },
            {
              "internalType": "uint8",
              "name": "arrowsCount",
              "type": "uint8"
            },
            {
              "internalType": "bool",
              "name": "hasManyArrows",
              "type": "bool"
            },
            {
              "internalType": "uint16",
              "name": "composite",
              "type": "uint16"
            },
            {
              "internalType": "bool",
              "name": "isRoot",
              "type": "bool"
            },
            {
              "internalType": "uint8",
              "name": "colorBand",
              "type": "uint8"
            },
            {
              "internalType": "uint8",
              "name": "gradient",
              "type": "uint8"
            },
            {
              "internalType": "uint8",
              "name": "direction",
              "type": "uint8"
            },
            {
              "internalType": "uint8",
              "name": "speed",
              "type": "uint8"
            }
          ],
          "internalType": "struct IArrows.Arrow",
          "name": "arrow",
          "type": "tuple"
        }
      ],
      "name": "attributes",
      "outputs": [
        {
          "internalType": "bytes",
          "name": "",
          "type": "bytes"
        }
      ],
      "stateMutability": "pure",
      "type": "function"
    },
    {
      "inputs": [
        {
          "internalType": "uint8",
          "name": "bandIndex",
          "type": "uint8"
        }
      ],
      "name": "colorBand",
      "outputs": [
        {
          "internalType": "string",
          "name": "",
          "type": "string"
        }
      ],
      "stateMutability": "pure",
      "type": "function"
    },
    {
      "inputs": [
        {
          "internalType": "uint256",
          "name": "tokenId",
          "type": "uint256"
        },
        {
          "internalType": "bytes",
          "name": "svg",
          "type": "bytes"
        }
      ],
      "name": "generateHTML",
      "outputs": [
        {
          "internalType": "bytes",
          "name": "",
          "type": "bytes"
        }
      ],
      "stateMutability": "pure",
      "type": "function"
    },
    {
      "inputs": [
        {
          "internalType": "uint8",
          "name": "gradientIndex",
          "type": "uint8"
        }
      ],
      "name": "gradients",
      "outputs": [
        {
          "internalType": "string",
          "name": "",
          "type": "string"
        }
      ],
      "stateMutability": "pure",
      "type": "function"
    },
    {
      "inputs": [
        {
          "internalType": "string",
          "name": "traitType",
          "type": "string"
        },
        {
          "internalType": "string",
          "name": "traitValue",
          "type": "string"
        },
        {
          "internalType": "string",
          "name": "append",
          "type": "string"
        }
      ],
      "name": "trait",
      "outputs": [
        {
          "internalType": "string",
          "name": "",
          "type": "string"
        }
      ],
      "stateMutability": "pure",
      "type": "function"
    }
  ],
  "bytecode": "0x6133f4610052600b82828239805160001a6073146045577f4e487b7100000000000000000000000000000000000000000000000000000000600052600060045260246000fd5b30600052607381538281f3fe730000000000000000000000000000000000000000301460806040526004361061006c5760003560e01c80631d0122c91461007157806387272406146100a1578063962f363b146100d1578063b390ef1914610101578063b7773faa14610131578063c2a4e8fe14610161575b600080fd5b61008b60048036038101906100869190611647565b610191565b60405161009891906116f4565b60405180910390f35b6100bb60048036038101906100b69190611716565b61084b565b6040516100c89190611798565b60405180910390f35b6100eb60048036038101906100e6919061186f565b610a14565b6040516100f89190611798565b60405180910390f35b61011b600480360381019061011691906119b7565b610a43565b60405161012891906116f4565b60405180910390f35b61014b60048036038101906101469190611716565b610a77565b6040516101589190611798565b60405180910390f35b61017b60048036038101906101769190611a49565b610c40565b6040516101889190611798565b60405180910390f35b60606000826020015180156101a7575082608001515b90506000836020015180156101c357506000846060015160ff16115b9050816101df57604051806020016040528060008152506102de565b6102dd6040518060400160405280600a81526020017f436f6c6f722042616e64000000000000000000000000000000000000000000008152506102a273__$16c56498840e565c43338e1647e2745caa$__638b59fdad888960000151606001516040518363ffffffff1660e01b815260040161025c929190611da6565b602060405180830381865af4158015610279573d6000803e3d6000fd5b505050506040513d601f19601f8201168201806040525081019061029d9190611de6565b61084b565b6040518060400160405280600181526020017f2c00000000000000000000000000000000000000000000000000000000000000815250610a14565b5b826102f857604051806020016040528060008152506103f7565b6103f66040518060400160405280600881526020017f4772616469656e740000000000000000000000000000000000000000000000008152506103bb73__$16c56498840e565c43338e1647e2745caa$__630c14f3e9898a60000151606001516040518363ffffffff1660e01b8152600401610375929190611da6565b602060405180830381865af4158015610392573d6000803e3d6000fd5b505050506040513d601f19601f820116820180604052508101906103b69190611de6565b610a77565b6040518060400160405280600181526020017f2c00000000000000000000000000000000000000000000000000000000000000815250610a14565b5b826104115760405180602001604052806000815250610554565b6105536040518060400160405280600581526020017f5370656564000000000000000000000000000000000000000000000000000000815250600488610140015160ff16146104e157600288610140015160ff16146104a5576040518060400160405280600481526020017f302e3578000000000000000000000000000000000000000000000000000000008152506104dc565b6040518060400160405280600281526020017f31780000000000000000000000000000000000000000000000000000000000008152505b610518565b6040518060400160405280600281526020017f32780000000000000000000000000000000000000000000000000000000000008152505b6040518060400160405280600181526020017f2c00000000000000000000000000000000000000000000000000000000000000815250610a14565b5b8361056e5760405180602001604052806000815250610665565b6106646040518060400160405280600581526020017f5368696674000000000000000000000000000000000000000000000000000000815250600089610120015160ff16146105f2576040518060400160405280600281526020017f5556000000000000000000000000000000000000000000000000000000000000815250610629565b6040518060400160405280600281526020017f49520000000000000000000000000000000000000000000000000000000000008152505b6040518060400160405280600181526020017f2c00000000000000000000000000000000000000000000000000000000000000815250610a14565b5b60001515886020015115151461068a5760405180602001604052806000815250610735565b6107346040518060400160405280600881526020017f52657665616c65640000000000000000000000000000000000000000000000008152506040518060400160405280600281526020017f4e6f0000000000000000000000000000000000000000000000000000000000008152506040518060400160405280600181526020017f2c00000000000000000000000000000000000000000000000000000000000000815250610a14565b5b6107b96040518060400160405280600681526020017f4172726f7773000000000000000000000000000000000000000000000000000081525061077e8b6060015160ff16610dca565b6040518060400160405280600181526020017f2c00000000000000000000000000000000000000000000000000000000000000815250610a14565b61081d6040518060400160405280600381526020017f44617900000000000000000000000000000000000000000000000000000000008152506108088c6000015160c0015162ffffff16610dca565b60405180602001604052806000815250610a14565b6040516020016108339796959493929190611e4f565b60405160208183030381529060405292505050919050565b60606040518060e001604052806040518060400160405280600681526020017f456967687479000000000000000000000000000000000000000000000000000081525081526020016040518060400160405280600581526020017f536978747900000000000000000000000000000000000000000000000000000081525081526020016040518060400160405280600581526020017f466f72747900000000000000000000000000000000000000000000000000000081525081526020016040518060400160405280600681526020017f5477656e7479000000000000000000000000000000000000000000000000000081525081526020016040518060400160405280600381526020017f54656e000000000000000000000000000000000000000000000000000000000081525081526020016040518060400160405280600481526020017f466976650000000000000000000000000000000000000000000000000000000081525081526020016040518060400160405280600381526020017f4f6e6500000000000000000000000000000000000000000000000000000000008152508152508260ff1660078110610a0857610a07611eb4565b5b60200201519050919050565b6060838383604051602001610a2b93929190612013565b60405160208183030381529060405290509392505050565b6060610a4e83610dca565b82604051602001610a609291906127f2565b604051602081830303815290604052905092915050565b60606040518060e001604052806040518060400160405280600481526020017f4e6f6e650000000000000000000000000000000000000000000000000000000081525081526020016040518060400160405280600681526020017f4c696e656172000000000000000000000000000000000000000000000000000081525081526020016040518060400160405280600d81526020017f446f75626c65204c696e6561720000000000000000000000000000000000000081525081526020016040518060400160405280600981526020017f5265666c6563746564000000000000000000000000000000000000000000000081525081526020016040518060400160405280600d81526020017f446f75626c6520416e676c65640000000000000000000000000000000000000081525081526020016040518060400160405280600681526020017f416e676c6564000000000000000000000000000000000000000000000000000081525081526020016040518060400160405280600881526020017f4c696e656172205a0000000000000000000000000000000000000000000000008152508152508260ff1660078110610c3457610c33611eb4565b5b60200201519050919050565b6060600073__$16c56498840e565c43338e1647e2745caa$__63f004743d85856040518363ffffffff1660e01b8152600401610c7d929190612934565b6103c060405180830381865af4158015610c9b573d6000803e3d6000fd5b505050506040513d601f19601f82011682018060405250810190610cbf9190612ca9565b9050600073__$16c56498840e565c43338e1647e2745caa$__63e66c347483866040518363ffffffff1660e01b8152600401610cfc929190612cd7565b600060405180830381865af4158015610d19573d6000803e3d6000fd5b505050506040513d6000823e3d601f19601f82011682018060405250810190610d429190612d72565b90506000610d4f86610dca565b610d5883610f50565b610d6a610d658986610a43565b610f50565b610d7386610191565b604051602001610d86949392919061308d565b6040516020818303038152906040529050610da081610f50565b604051602001610db091906131a6565b604051602081830303815290604052935050505092915050565b606060008203610e11576040518060400160405280600181526020017f30000000000000000000000000000000000000000000000000000000000000008152509050610f4b565b600082905060005b60008214610e415780610e2b906131f7565b9050600a82610e3a919061326e565b9150610e19565b60008167ffffffffffffffff811115610e5d57610e5c61113b565b5b6040519080825280601f01601f191660200182016040528015610e8f5781602001600182028036833780820191505090505b50905060008290505b60008614610f4357600181610ead919061329f565b90506000600a8088610ebf919061326e565b610ec991906132d3565b87610ed4919061329f565b6030610ee09190613315565b905060008160f81b905080848481518110610efe57610efd611eb4565b5b60200101907effffffffffffffffffffffffffffffffffffffffffffffffffffffffffffff1916908160001a905350600a88610f3a919061326e565b97505050610e98565b819450505050505b919050565b6060610f768260405180606001604052806040815260200161337f604091396001610f7d565b9050919050565b60606000845103610f9f5760405180602001604052806000815250905061110a565b600082610fd1576003600286516004610fb891906132d3565b610fc2919061334a565b610fcc919061326e565b610ff8565b600360028651610fe1919061334a565b610feb919061326e565b6004610ff791906132d3565b5b905060008167ffffffffffffffff8111156110165761101561113b565b5b6040519080825280601f01601f1916602001820160405280156110485781602001600182028036833780820191505090505b50905060018501602082018788518901602081018051600082525b828410156110be576003840193508351603f8160121c168701518653600186019550603f81600c1c168701518653600186019550603f8160061c168701518653600186019550603f8116870151865360018601955050611063565b80825289156110fe5760038c5106600181146110e157600281146110f4576110fc565b603d6001870353603d60028703536110fc565b603d60018703535b505b50505050505080925050505b9392505050565b6000604051905090565b600080fd5b600080fd5b600080fd5b6000601f19601f8301169050919050565b7f4e487b7100000000000000000000000000000000000000000000000000000000600052604160045260246000fd5b6111738261112a565b810181811067ffffffffffffffff821117156111925761119161113b565b5b80604052505050565b60006111a5611111565b90506111b1828261116a565b919050565b600080fd5b600067ffffffffffffffff8211156111d6576111d561113b565b5b602082029050919050565b600080fd5b600061ffff82169050919050565b6111fd816111e6565b811461120857600080fd5b50565b60008135905061121a816111f4565b92915050565b600061123361122e846111bb565b61119b565b9050806020840283018581111561124d5761124c6111e1565b5b835b818110156112765780611262888261120b565b84526020840193505060208101905061124f565b5050509392505050565b600082601f830112611295576112946111b6565b5b60066112a2848285611220565b91505092915050565b600067ffffffffffffffff8211156112c6576112c561113b565b5b602082029050919050565b600060ff82169050919050565b6112e7816112d1565b81146112f257600080fd5b50565b600081359050611304816112de565b92915050565b600061131d611318846112ab565b61119b565b90508060208402830185811115611337576113366111e1565b5b835b81811015611360578061134c88826112f5565b845260208401935050602081019050611339565b5050509392505050565b600082601f83011261137f5761137e6111b6565b5b600561138c84828561130a565b91505092915050565b600063ffffffff82169050919050565b6113ae81611395565b81146113b957600080fd5b50565b6000813590506113cb816113a5565b92915050565b600062ffffff82169050919050565b6113e9816113d1565b81146113f457600080fd5b50565b600081359050611406816113e0565b92915050565b6000610280828403121561142357611422611125565b5b61142d60e061119b565b9050600061143d84828501611280565b60008301525060c06114518482850161136a565b6020830152506101606114668482850161136a565b60408301525061020061147b848285016112f5565b606083015250610220611490848285016113bc565b6080830152506102406114a58482850161120b565b60a0830152506102606114ba848285016113f7565b60c08301525092915050565b60008115159050919050565b6114db816114c6565b81146114e657600080fd5b50565b6000813590506114f8816114d2565b92915050565b6000819050919050565b611511816114fe565b811461151c57600080fd5b50565b60008135905061152e81611508565b92915050565b60006103c0828403121561154b5761154a611125565b5b61155661016061119b565b905060006115668482850161140c565b60008301525061028061157b848285016114e9565b6020830152506102a06115908482850161151f565b6040830152506102c06115a5848285016112f5565b6060830152506102e06115ba848285016114e9565b6080830152506103006115cf8482850161120b565b60a0830152506103206115e4848285016114e9565b60c0830152506103406115f9848285016112f5565b60e08301525061036061160e848285016112f5565b61010083015250610380611624848285016112f5565b610120830152506103a061163a848285016112f5565b6101408301525092915050565b60006103c0828403121561165e5761165d61111b565b5b600061166c84828501611534565b91505092915050565b600081519050919050565b600082825260208201905092915050565b60005b838110156116af578082015181840152602081019050611694565b60008484015250505050565b60006116c682611675565b6116d08185611680565b93506116e0818560208601611691565b6116e98161112a565b840191505092915050565b6000602082019050818103600083015261170e81846116bb565b905092915050565b60006020828403121561172c5761172b61111b565b5b600061173a848285016112f5565b91505092915050565b600081519050919050565b600082825260208201905092915050565b600061176a82611743565b611774818561174e565b9350611784818560208601611691565b61178d8161112a565b840191505092915050565b600060208201905081810360008301526117b2818461175f565b905092915050565b600080fd5b600067ffffffffffffffff8211156117da576117d961113b565b5b6117e38261112a565b9050602081019050919050565b82818337600083830152505050565b600061181261180d846117bf565b61119b565b90508281526020810184848401111561182e5761182d6117ba565b5b6118398482856117f0565b509392505050565b600082601f830112611856576118556111b6565b5b81356118668482602086016117ff565b91505092915050565b6000806000606084860312156118885761188761111b565b5b600084013567ffffffffffffffff8111156118a6576118a5611120565b5b6118b286828701611841565b935050602084013567ffffffffffffffff8111156118d3576118d2611120565b5b6118df86828701611841565b925050604084013567ffffffffffffffff811115611900576118ff611120565b5b61190c86828701611841565b9150509250925092565b600067ffffffffffffffff8211156119315761193061113b565b5b61193a8261112a565b9050602081019050919050565b600061195a61195584611916565b61119b565b905082815260208101848484011115611976576119756117ba565b5b6119818482856117f0565b509392505050565b600082601f83011261199e5761199d6111b6565b5b81356119ae848260208601611947565b91505092915050565b600080604083850312156119ce576119cd61111b565b5b60006119dc8582860161151f565b925050602083013567ffffffffffffffff8111156119fd576119fc611120565b5b611a0985828601611989565b9150509250929050565b6000819050919050565b611a2681611a13565b8114611a3157600080fd5b50565b600081359050611a4381611a1d565b92915050565b60008060408385031215611a6057611a5f61111b565b5b6000611a6e8582860161151f565b9250506020611a7f85828601611a34565b9150509250929050565b600060069050919050565b600081905092915050565b6000819050919050565b611ab2816111e6565b82525050565b6000611ac48383611aa9565b60208301905092915050565b6000602082019050919050565b611ae681611a89565b611af08184611a94565b9250611afb82611a9f565b8060005b83811015611b2c578151611b138782611ab8565b9650611b1e83611ad0565b925050600181019050611aff565b505050505050565b600060059050919050565b600081905092915050565b6000819050919050565b611b5d816112d1565b82525050565b6000611b6f8383611b54565b60208301905092915050565b6000602082019050919050565b611b9181611b34565b611b9b8184611b3f565b9250611ba682611b4a565b8060005b83811015611bd7578151611bbe8782611b63565b9650611bc983611b7b565b925050600181019050611baa565b505050505050565b611be881611395565b82525050565b611bf7816113d1565b82525050565b61028082016000820151611c146000850182611add565b506020820151611c2760c0850182611b88565b506040820151611c3b610160850182611b88565b506060820151611c4f610200850182611b54565b506080820151611c63610220850182611bdf565b5060a0820151611c77610240850182611aa9565b5060c0820151611c8b610260850182611bee565b50505050565b611c9a816114c6565b82525050565b611ca9816114fe565b82525050565b6103c082016000820151611cc66000850182611bfd565b506020820151611cda610280850182611c91565b506040820151611cee6102a0850182611ca0565b506060820151611d026102c0850182611b54565b506080820151611d166102e0850182611c91565b5060a0820151611d2a610300850182611aa9565b5060c0820151611d3e610320850182611c91565b5060e0820151611d52610340850182611b54565b50610100820151611d67610360850182611b54565b50610120820151611d7c610380850182611b54565b50610140820151611d916103a0850182611b54565b50505050565b611da0816112d1565b82525050565b60006103e082019050611dbc6000830185611caf565b611dca6103c0830184611d97565b9392505050565b600081519050611de0816112de565b92915050565b600060208284031215611dfc57611dfb61111b565b5b6000611e0a84828501611dd1565b91505092915050565b600081905092915050565b6000611e2982611743565b611e338185611e13565b9350611e43818560208601611691565b80840191505092915050565b6000611e5b828a611e1e565b9150611e678289611e1e565b9150611e738288611e1e565b9150611e7f8287611e1e565b9150611e8b8286611e1e565b9150611e978285611e1e565b9150611ea38284611e1e565b915081905098975050505050505050565b7f4e487b7100000000000000000000000000000000000000000000000000000000600052603260045260246000fd5b7f7b00000000000000000000000000000000000000000000000000000000000000600082015250565b6000611f19600183611e13565b9150611f2482611ee3565b600182019050919050565b7f2274726169745f74797065223a20220000000000000000000000000000000000600082015250565b6000611f65600f83611e13565b9150611f7082611f2f565b600f82019050919050565b7f222c2276616c7565223a20220000000000000000000000000000000000000000600082015250565b6000611fb1600c83611e13565b9150611fbc82611f7b565b600c82019050919050565b7f227d000000000000000000000000000000000000000000000000000000000000600082015250565b6000611ffd600283611e13565b915061200882611fc7565b600282019050919050565b600061201e82611f0c565b915061202982611f58565b91506120358286611e1e565b915061204082611fa4565b915061204c8285611e1e565b915061205782611ff0565b91506120638284611e1e565b9150819050949350505050565b7f3c21444f43545950452068746d6c3e0000000000000000000000000000000000600082015250565b60006120a6600f83611e13565b91506120b182612070565b600f82019050919050565b7f3c68746d6c206c616e673d22656e223e00000000000000000000000000000000600082015250565b60006120f2601083611e13565b91506120fd826120bc565b601082019050919050565b7f3c686561643e0000000000000000000000000000000000000000000000000000600082015250565b600061213e600683611e13565b915061214982612108565b600682019050919050565b7f3c6d65746120636861727365743d225554462d38223e00000000000000000000600082015250565b600061218a601683611e13565b915061219582612154565b601682019050919050565b7f3c6d65746120687474702d65717569763d22582d55412d436f6d70617469626c60008201527f652220636f6e74656e743d2249453d65646765223e0000000000000000000000602082015250565b60006121fc603583611e13565b9150612207826121a0565b603582019050919050565b7f3c6d657461206e616d653d2276696577706f72742220636f6e74656e743d227760008201527f696474683d6465766963652d77696474682c20696e697469616c2d7363616c6560208201527f3d312e30223e0000000000000000000000000000000000000000000000000000604082015250565b6000612294604683611e13565b915061229f82612212565b604682019050919050565b7f3c7469746c653e4172726f772023000000000000000000000000000000000000600082015250565b60006122e0600e83611e13565b91506122eb826122aa565b600e82019050919050565b7f3c2f7469746c653e000000000000000000000000000000000000000000000000600082015250565b600061232c600883611e13565b9150612337826122f6565b600882019050919050565b7f3c7374796c653e00000000000000000000000000000000000000000000000000600082015250565b6000612378600783611e13565b915061238382612342565b600782019050919050565b7f68746d6c2c000000000000000000000000000000000000000000000000000000600082015250565b60006123c4600583611e13565b91506123cf8261238e565b600582019050919050565b7f626f6479207b0000000000000000000000000000000000000000000000000000600082015250565b6000612410600683611e13565b915061241b826123da565b600682019050919050565b7f6d617267696e3a20303b00000000000000000000000000000000000000000000600082015250565b600061245c600a83611e13565b915061246782612426565b600a82019050919050565b7f6261636b67726f756e643a20234546454645463b000000000000000000000000600082015250565b60006124a8601483611e13565b91506124b382612472565b601482019050919050565b7f6f766572666c6f773a2068696464656e3b000000000000000000000000000000600082015250565b60006124f4601183611e13565b91506124ff826124be565b601182019050919050565b7f7d00000000000000000000000000000000000000000000000000000000000000600082015250565b6000612540600183611e13565b915061254b8261250a565b600182019050919050565b7f737667207b000000000000000000000000000000000000000000000000000000600082015250565b600061258c600583611e13565b915061259782612556565b600582019050919050565b7f6d61782d77696474683a2031303076773b000000000000000000000000000000600082015250565b60006125d8601183611e13565b91506125e3826125a2565b601182019050919050565b7f6d61782d6865696768743a2031303076683b0000000000000000000000000000600082015250565b6000612624601283611e13565b915061262f826125ee565b601282019050919050565b7f3c2f7374796c653e000000000000000000000000000000000000000000000000600082015250565b6000612670600883611e13565b915061267b8261263a565b600882019050919050565b7f3c2f686561643e00000000000000000000000000000000000000000000000000600082015250565b60006126bc600783611e13565b91506126c782612686565b600782019050919050565b7f3c626f64793e0000000000000000000000000000000000000000000000000000600082015250565b6000612708600683611e13565b9150612713826126d2565b600682019050919050565b600081905092915050565b600061273482611675565b61273e818561271e565b935061274e818560208601611691565b80840191505092915050565b7f3c2f626f64793e00000000000000000000000000000000000000000000000000600082015250565b6000612790600783611e13565b915061279b8261275a565b600782019050919050565b7f3c2f68746d6c3e00000000000000000000000000000000000000000000000000600082015250565b60006127dc600783611e13565b91506127e7826127a6565b600782019050919050565b60006127fd82612099565b9150612808826120e5565b915061281382612131565b915061281e8261217d565b9150612829826121ef565b915061283482612287565b915061283f826122d3565b915061284b8285611e1e565b91506128568261231f565b91506128618261236b565b915061286c826123b7565b915061287782612403565b91506128828261244f565b915061288d8261249b565b9150612898826124e7565b91506128a382612533565b91506128ae8261257f565b91506128b9826125cb565b91506128c482612617565b91506128cf82612533565b91506128da82612663565b91506128e5826126af565b91506128f0826126fb565b91506128fc8284612729565b915061290782612783565b9150612912826127cf565b91508190509392505050565b612927816114fe565b82525050565b8082525050565b6000604082019050612949600083018561291e565b612956602083018461292d565b9392505050565b60008151905061296c816111f4565b92915050565b6000612985612980846111bb565b61119b565b9050806020840283018581111561299f5761299e6111e1565b5b835b818110156129c857806129b4888261295d565b8452602084019350506020810190506129a1565b5050509392505050565b600082601f8301126129e7576129e66111b6565b5b60066129f4848285612972565b91505092915050565b6000612a10612a0b846112ab565b61119b565b90508060208402830185811115612a2a57612a296111e1565b5b835b81811015612a535780612a3f8882611dd1565b845260208401935050602081019050612a2c565b5050509392505050565b600082601f830112612a7257612a716111b6565b5b6005612a7f8482856129fd565b91505092915050565b600081519050612a97816113a5565b92915050565b600081519050612aac816113e0565b92915050565b60006102808284031215612ac957612ac8611125565b5b612ad360e061119b565b90506000612ae3848285016129d2565b60008301525060c0612af784828501612a5d565b602083015250610160612b0c84828501612a5d565b604083015250610200612b2184828501611dd1565b606083015250610220612b3684828501612a88565b608083015250610240612b4b8482850161295d565b60a083015250610260612b6084828501612a9d565b60c08301525092915050565b600081519050612b7b816114d2565b92915050565b600081519050612b9081611508565b92915050565b60006103c08284031215612bad57612bac611125565b5b612bb861016061119b565b90506000612bc884828501612ab2565b600083015250610280612bdd84828501612b6c565b6020830152506102a0612bf284828501612b81565b6040830152506102c0612c0784828501611dd1565b6060830152506102e0612c1c84828501612b6c565b608083015250610300612c318482850161295d565b60a083015250610320612c4684828501612b6c565b60c083015250610340612c5b84828501611dd1565b60e083015250610360612c7084828501611dd1565b61010083015250610380612c8684828501611dd1565b610120830152506103a0612c9c84828501611dd1565b6101408301525092915050565b60006103c08284031215612cc057612cbf61111b565b5b6000612cce84828501612b96565b91505092915050565b60006103e082019050612ced6000830185611caf565b612cfb6103c083018461292d565b9392505050565b6000612d15612d1084611916565b61119b565b905082815260208101848484011115612d3157612d306117ba565b5b612d3c848285611691565b509392505050565b600082601f830112612d5957612d586111b6565b5b8151612d69848260208601612d02565b91505092915050565b600060208284031215612d8857612d8761111b565b5b600082015167ffffffffffffffff811115612da657612da5611120565b5b612db284828501612d44565b91505092915050565b7f226e616d65223a20224172726f77732000000000000000000000000000000000600082015250565b6000612df1601083611e13565b9150612dfc82612dbb565b601082019050919050565b7f222c000000000000000000000000000000000000000000000000000000000000600082015250565b6000612e3d600283611e13565b9150612e4882612e07565b600282019050919050565b7f226465736372697074696f6e223a20225468697320617274776f726b206d617960008201527f206f72206d6179206e6f74206265206e6f7461626c652e222c00000000000000602082015250565b6000612eaf603983611e13565b9150612eba82612e53565b603982019050919050565b7f22696d616765223a200000000000000000000000000000000000000000000000600082015250565b6000612efb600983611e13565b9150612f0682612ec5565b600982019050919050565b7f22646174613a696d6167652f7376672b786d6c3b6261736536342c0000000000600082015250565b6000612f47601b83611e13565b9150612f5282612f11565b601b82019050919050565b7f22616e696d6174696f6e5f75726c223a20000000000000000000000000000000600082015250565b6000612f93601183611e13565b9150612f9e82612f5d565b601182019050919050565b7f22646174613a746578742f68746d6c3b6261736536342c000000000000000000600082015250565b6000612fdf601783611e13565b9150612fea82612fa9565b601782019050919050565b7f2261747472696275746573223a205b0000000000000000000000000000000000600082015250565b600061302b600f83611e13565b915061303682612ff5565b600f82019050919050565b7f5d00000000000000000000000000000000000000000000000000000000000000600082015250565b6000613077600183611e13565b915061308282613041565b600182019050919050565b600061309882611f0c565b91506130a382612de4565b91506130af8287611e1e565b91506130ba82612e30565b91506130c582612ea2565b91506130d082612eee565b91506130db82612f3a565b91506130e78286611e1e565b91506130f282612e30565b91506130fd82612f86565b915061310882612fd2565b91506131148285611e1e565b915061311f82612e30565b915061312a8261301e565b91506131368284612729565b91506131418261306a565b915061314c82612533565b915081905095945050505050565b7f646174613a6170706c69636174696f6e2f6a736f6e3b6261736536342c000000600082015250565b6000613190601d83611e13565b915061319b8261315a565b601d82019050919050565b60006131b182613183565b91506131bd8284611e1e565b915081905092915050565b7f4e487b7100000000000000000000000000000000000000000000000000000000600052601160045260246000fd5b6000613202826114fe565b91507fffffffffffffffffffffffffffffffffffffffffffffffffffffffffffffffff8203613234576132336131c8565b5b600182019050919050565b7f4e487b7100000000000000000000000000000000000000000000000000000000600052601260045260246000fd5b6000613279826114fe565b9150613284836114fe565b9250826132945761329361323f565b5b828204905092915050565b60006132aa826114fe565b91506132b5836114fe565b92508282039050818111156132cd576132cc6131c8565b5b92915050565b60006132de826114fe565b91506132e9836114fe565b92508282026132f7816114fe565b9150828204841483151761330e5761330d6131c8565b5b5092915050565b6000613320826112d1565b915061332b836112d1565b9250828201905060ff811115613344576133436131c8565b5b92915050565b6000613355826114fe565b9150613360836114fe565b9250828201905080821115613378576133776131c8565b5b9291505056fe4142434445464748494a4b4c4d4e4f505152535455565758595a6162636465666768696a6b6c6d6e6f707172737475767778797a303132333435363738392b2fa2646970667358221220dc7822f61fe4c050de34ea74b95294fb0b3bc7a462cdaad959765a057c01c2d164736f6c634300081c0033",
  "linkReferences": {
    "contracts/libraries/ArrowsArt.sol": {
      "ArrowsArt": [
        {
          "length": 20,
          "start": 623
        },
        {
          "length": 20,
          "start": 904
        },
        {
          "length": 20,
          "start": 3224
        },
        {
          "length": 20,
          "start": 3351
        }
      ]
    }
  },
  "deployedLinkReferences": {
    "contracts/libraries/ArrowsArt.sol": {
      "ArrowsArt": [
        {
          "length": 20,
          "start": 541
        },
        {
          "length": 20,
          "start": 822
        },
        {
          "length": 20,
          "start": 3142
        },
        {
          "length": 20,
          "start": 3269
        }
      ]
    }
  }
}