{
  "_format": "hh-sol-artifact-1",
  "contractName": "Arrows",
  "sourceName": "contracts/Arrows.sol",
  "abi": [
    {
      "inputs": [],
      "stateMutability": "nonpayable",
      "type": "constructor"
    },
    {
      "inputs": [],
      "name": "BlackArrow__InvalidArrow",
      "type": "error"
    },
    {
      "inputs": [],
      "name": "ERC721__InvalidApproval",
      "type": "error"
    },
    {
      "inputs": [],
      "name": "ERC721__InvalidOwner",
      "type": "error"
    },
    {
      "inputs": [],
      "name": "ERC721__InvalidToken",
      "type": "error"
    },
    {
      "inputs": [],
      "name": "ERC721__NotAllowed",
      "type": "error"
    },
    {
      "inputs": [],
      "name": "ERC721__TokenExists",
      "type": "error"
    },
    {
      "inputs": [],
      "name": "ERC721__TransferToNonReceiver",
      "type": "error"
    },
    {
      "inputs": [],
      "name": "ERC721__TransferToZero",
      "type": "error"
    },
    {
      "inputs": [],
      "name": "InvalidTokenCount",
      "type": "error"
    },
    {
      "inputs": [],
      "name": "NotAllowed",
      "type": "error"
    },
    {
      "anonymous": false,
      "inputs": [
        {
          "indexed": true,
          "internalType": "address",
          "name": "owner",
          "type": "address"
        },
        {
          "indexed": true,
          "internalType": "address",
          "name": "approved",
          "type": "address"
        },
        {
          "indexed": true,
          "internalType": "uint256",
          "name": "tokenId",
          "type": "uint256"
        }
      ],
      "name": "Approval",
      "type": "event"
    },
    {
      "anonymous": false,
      "inputs": [
        {
          "indexed": true,
          "internalType": "address",
          "name": "owner",
          "type": "address"
        },
        {
          "indexed": true,
          "internalType": "address",
          "name": "operator",
          "type": "address"
        },
        {
          "indexed": false,
          "internalType": "bool",
          "name": "approved",
          "type": "bool"
        }
      ],
      "name": "ApprovalForAll",
      "type": "event"
    },
    {
      "anonymous": false,
      "inputs": [
        {
          "indexed": true,
          "internalType": "uint256",
          "name": "tokenId",
          "type": "uint256"
        },
        {
          "indexed": true,
          "internalType": "uint256",
          "name": "burnedId",
          "type": "uint256"
        },
        {
          "indexed": true,
          "internalType": "uint8",
          "name": "arrows",
          "type": "uint8"
        }
      ],
      "name": "Composite",
      "type": "event"
    },
    {
      "anonymous": false,
      "inputs": [
        {
          "indexed": true,
          "internalType": "uint256",
          "name": "tokenId",
          "type": "uint256"
        },
        {
          "indexed": true,
          "internalType": "uint256[]",
          "name": "burnedIds",
          "type": "uint256[]"
        }
      ],
      "name": "Infinity",
      "type": "event"
    },
    {
      "anonymous": false,
      "inputs": [
        {
          "indexed": false,
          "internalType": "uint256",
          "name": "_tokenId",
          "type": "uint256"
        }
      ],
      "name": "MetadataUpdate",
      "type": "event"
    },
    {
      "anonymous": false,
      "inputs": [
        {
          "indexed": true,
          "internalType": "uint256",
          "name": "epoch",
          "type": "uint256"
        },
        {
          "indexed": true,
          "internalType": "uint64",
          "name": "revealBlock",
          "type": "uint64"
        }
      ],
      "name": "NewEpoch",
      "type": "event"
    },
    {
      "anonymous": false,
      "inputs": [
        {
          "indexed": true,
          "internalType": "uint256",
          "name": "burnedId",
          "type": "uint256"
        },
        {
          "indexed": true,
          "internalType": "uint256",
          "name": "tokenId",
          "type": "uint256"
        }
      ],
      "name": "Sacrifice",
      "type": "event"
    },
    {
      "anonymous": false,
      "inputs": [
        {
          "indexed": true,
          "internalType": "address",
          "name": "from",
          "type": "address"
        },
        {
          "indexed": true,
          "internalType": "address",
          "name": "to",
          "type": "address"
        },
        {
          "indexed": true,
          "internalType": "uint256",
          "name": "tokenId",
          "type": "uint256"
        }
      ],
      "name": "Transfer",
      "type": "event"
    },
    {
      "inputs": [
        {
          "internalType": "address",
          "name": "to",
          "type": "address"
        },
        {
          "internalType": "uint256",
          "name": "tokenId",
          "type": "uint256"
        }
      ],
      "name": "approve",
      "outputs": [],
      "stateMutability": "nonpayable",
      "type": "function"
    },
    {
      "inputs": [
        {
          "internalType": "address",
          "name": "owner",
          "type": "address"
        }
      ],
      "name": "balanceOf",
      "outputs": [
        {
          "internalType": "uint256",
          "name": "",
          "type": "uint256"
        }
      ],
      "stateMutability": "view",
      "type": "function"
    },
    {
      "inputs": [
        {
          "internalType": "uint256",
          "name": "tokenId",
          "type": "uint256"
        }
      ],
      "name": "burn",
      "outputs": [],
      "stateMutability": "nonpayable",
      "type": "function"
    },
    {
      "inputs": [
        {
          "internalType": "uint256",
          "name": "tokenId",
          "type": "uint256"
        }
      ],
      "name": "colors",
      "outputs": [
        {
          "internalType": "string[]",
          "name": "",
          "type": "string[]"
        },
        {
          "internalType": "uint256[]",
          "name": "",
          "type": "uint256[]"
        }
      ],
      "stateMutability": "view",
      "type": "function"
    },
    {
      "inputs": [
        {
          "internalType": "uint256",
          "name": "tokenId",
          "type": "uint256"
        },
        {
          "internalType": "uint256",
          "name": "burnId",
          "type": "uint256"
        },
        {
          "internalType": "bool",
          "name": "swap",
          "type": "bool"
        }
      ],
      "name": "composite",
      "outputs": [],
      "stateMutability": "nonpayable",
      "type": "function"
    },
    {
      "inputs": [
        {
          "internalType": "uint256[]",
          "name": "tokenIds",
          "type": "uint256[]"
        },
        {
          "internalType": "uint256[]",
          "name": "burnIds",
          "type": "uint256[]"
        }
      ],
      "name": "compositeMany",
      "outputs": [],
      "stateMutability": "nonpayable",
      "type": "function"
    },
    {
      "inputs": [],
      "name": "editionArrows",
      "outputs": [
        {
          "internalType": "contract IArrowsEdition",
          "name": "",
          "type": "address"
        }
      ],
      "stateMutability": "view",
      "type": "function"
    },
    {
      "inputs": [
        {
          "internalType": "uint256",
          "name": "tokenId",
          "type": "uint256"
        }
      ],
      "name": "getApproved",
      "outputs": [
        {
          "internalType": "address",
          "name": "",
          "type": "address"
        }
      ],
      "stateMutability": "view",
      "type": "function"
    },
    {
      "inputs": [
        {
          "internalType": "uint256",
          "name": "tokenId",
          "type": "uint256"
        }
      ],
      "name": "getArrow",
      "outputs": [
        {
          "components": [
            {
              "components": [
                {
                  "internalType": "uint16[6]",
                  "name": "composites",
                  "type": "uint16[6]"
                },
                {
                  "internalType": "uint8[5]",
                  "name": "colorBands",
                  "type": "uint8[5]"
                },
                {
                  "internalType": "uint8[5]",
                  "name": "gradients",
                  "type": "uint8[5]"
                },
                {
                  "internalType": "uint8",
                  "name": "divisorIndex",
                  "type": "uint8"
                },
                {
                  "internalType": "uint32",
                  "name": "epoch",
                  "type": "uint32"
                },
                {
                  "internalType": "uint16",
                  "name": "seed",
                  "type": "uint16"
                },
                {
                  "internalType": "uint24",
                  "name": "day",
                  "type": "uint24"
                }
              ],
              "internalType": "struct IArrows.StoredArrow",
              "name": "stored",
              "type": "tuple"
            },
            {
              "internalType": "bool",
              "name": "isRevealed",
              "type": "bool"
            },
            {
              "internalType": "uint256",
              "name": "seed",
              "type": "uint256"
            },
            {
              "internalType": "uint8",
              "name": "arrowsCount",
              "type": "uint8"
            },
            {
              "internalType": "bool",
              "name": "hasManyArrows",
              "type": "bool"
            },
            {
              "internalType": "uint16",
              "name": "composite",
              "type": "uint16"
            },
            {
              "internalType": "bool",
              "name": "isRoot",
              "type": "bool"
            },
            {
              "internalType": "uint8",
              "name": "colorBand",
              "type": "uint8"
            },
            {
              "internalType": "uint8",
              "name": "gradient",
              "type": "uint8"
            },
            {
              "internalType": "uint8",
              "name": "direction",
              "type": "uint8"
            },
            {
              "internalType": "uint8",
              "name": "speed",
              "type": "uint8"
            }
          ],
          "internalType": "struct IArrows.Arrow",
          "name": "arrow",
          "type": "tuple"
        }
      ],
      "stateMutability": "view",
      "type": "function"
    },
    {
      "inputs": [],
      "name": "getEpoch",
      "outputs": [
        {
          "internalType": "uint256",
          "name": "",
          "type": "uint256"
        }
      ],
      "stateMutability": "view",
      "type": "function"
    },
    {
      "inputs": [
        {
          "internalType": "uint256",
          "name": "index",
          "type": "uint256"
        }
      ],
      "name": "getEpochData",
      "outputs": [
        {
          "components": [
            {
              "internalType": "uint128",
              "name": "randomness",
              "type": "uint128"
            },
            {
              "internalType": "uint64",
              "name": "revealBlock",
              "type": "uint64"
            },
            {
              "internalType": "bool",
              "name": "committed",
              "type": "bool"
            },
            {
              "internalType": "bool",
              "name": "revealed",
              "type": "bool"
            }
          ],
          "internalType": "struct IArrows.Epoch",
          "name": "",
          "type": "tuple"
        }
      ],
      "stateMutability": "view",
      "type": "function"
    },
    {
      "inputs": [
        {
          "internalType": "uint256",
          "name": "tokenId",
          "type": "uint256"
        },
        {
          "internalType": "uint256",
          "name": "burnId",
          "type": "uint256"
        }
      ],
      "name": "inItForTheArt",
      "outputs": [],
      "stateMutability": "nonpayable",
      "type": "function"
    },
    {
      "inputs": [
        {
          "internalType": "uint256[]",
          "name": "tokenIds",
          "type": "uint256[]"
        },
        {
          "internalType": "uint256[]",
          "name": "burnIds",
          "type": "uint256[]"
        }
      ],
      "name": "inItForTheArts",
      "outputs": [],
      "stateMutability": "nonpayable",
      "type": "function"
    },
    {
      "inputs": [
        {
          "internalType": "uint256[]",
          "name": "tokenIds",
          "type": "uint256[]"
        }
      ],
      "name": "infinity",
      "outputs": [],
      "stateMutability": "nonpayable",
      "type": "function"
    },
    {
      "inputs": [
        {
          "internalType": "address",
          "name": "owner",
          "type": "address"
        },
        {
          "internalType": "address",
          "name": "operator",
          "type": "address"
        }
      ],
      "name": "isApprovedForAll",
      "outputs": [
        {
          "internalType": "bool",
          "name": "",
          "type": "bool"
        }
      ],
      "stateMutability": "view",
      "type": "function"
    },
    {
      "inputs": [
        {
          "internalType": "uint256[]",
          "name": "tokenIds",
          "type": "uint256[]"
        },
        {
          "internalType": "address",
          "name": "recipient",
          "type": "address"
        }
      ],
      "name": "mint",
      "outputs": [],
      "stateMutability": "nonpayable",
      "type": "function"
    },
    {
      "inputs": [],
      "name": "name",
      "outputs": [
        {
          "internalType": "string",
          "name": "",
          "type": "string"
        }
      ],
      "stateMutability": "view",
      "type": "function"
    },
    {
      "inputs": [
        {
          "internalType": "uint256",
          "name": "tokenId",
          "type": "uint256"
        }
      ],
      "name": "ownerOf",
      "outputs": [
        {
          "internalType": "address",
          "name": "",
          "type": "address"
        }
      ],
      "stateMutability": "view",
      "type": "function"
    },
    {
      "inputs": [],
      "name": "resolveEpochIfNecessary",
      "outputs": [],
      "stateMutability": "nonpayable",
      "type": "function"
    },
    {
      "inputs": [
        {
          "internalType": "address",
          "name": "from",
          "type": "address"
        },
        {
          "internalType": "address",
          "name": "to",
          "type": "address"
        },
        {
          "internalType": "uint256",
          "name": "tokenId",
          "type": "uint256"
        }
      ],
      "name": "safeTransferFrom",
      "outputs": [],
      "stateMutability": "nonpayable",
      "type": "function"
    },
    {
      "inputs": [
        {
          "internalType": "address",
          "name": "from",
          "type": "address"
        },
        {
          "internalType": "address",
          "name": "to",
          "type": "address"
        },
        {
          "internalType": "uint256",
          "name": "tokenId",
          "type": "uint256"
        },
        {
          "internalType": "bytes",
          "name": "data",
          "type": "bytes"
        }
      ],
      "name": "safeTransferFrom",
      "outputs": [],
      "stateMutability": "nonpayable",
      "type": "function"
    },
    {
      "inputs": [
        {
          "internalType": "address",
          "name": "operator",
          "type": "address"
        },
        {
          "internalType": "bool",
          "name": "approved",
          "type": "bool"
        }
      ],
      "name": "setApprovalForAll",
      "outputs": [],
      "stateMutability": "nonpayable",
      "type": "function"
    },
    {
      "inputs": [
        {
          "internalType": "uint256",
          "name": "tokenId",
          "type": "uint256"
        },
        {
          "internalType": "uint256",
          "name": "burnId",
          "type": "uint256"
        }
      ],
      "name": "simulateComposite",
      "outputs": [
        {
          "components": [
            {
              "components": [
                {
                  "internalType": "uint16[6]",
                  "name": "composites",
                  "type": "uint16[6]"
                },
                {
                  "internalType": "uint8[5]",
                  "name": "colorBands",
                  "type": "uint8[5]"
                },
                {
                  "internalType": "uint8[5]",
                  "name": "gradients",
                  "type": "uint8[5]"
                },
                {
                  "internalType": "uint8",
                  "name": "divisorIndex",
                  "type": "uint8"
                },
                {
                  "internalType": "uint32",
                  "name": "epoch",
                  "type": "uint32"
                },
                {
                  "internalType": "uint16",
                  "name": "seed",
                  "type": "uint16"
                },
                {
                  "internalType": "uint24",
                  "name": "day",
                  "type": "uint24"
                }
              ],
              "internalType": "struct IArrows.StoredArrow",
              "name": "stored",
              "type": "tuple"
            },
            {
              "internalType": "bool",
              "name": "isRevealed",
              "type": "bool"
            },
            {
              "internalType": "uint256",
              "name": "seed",
              "type": "uint256"
            },
            {
              "internalType": "uint8",
              "name": "arrowsCount",
              "type": "uint8"
            },
            {
              "internalType": "bool",
              "name": "hasManyArrows",
              "type": "bool"
            },
            {
              "internalType": "uint16",
              "name": "composite",
              "type": "uint16"
            },
            {
              "internalType": "bool",
              "name": "isRoot",
              "type": "bool"
            },
            {
              "internalType": "uint8",
              "name": "colorBand",
              "type": "uint8"
            },
            {
              "internalType": "uint8",
              "name": "gradient",
              "type": "uint8"
            },
            {
              "internalType": "uint8",
              "name": "direction",
              "type": "uint8"
            },
            {
              "internalType": "uint8",
              "name": "speed",
              "type": "uint8"
            }
          ],
          "internalType": "struct IArrows.Arrow",
          "name": "arrow",
          "type": "tuple"
        }
      ],
      "stateMutability": "view",
      "type": "function"
    },
    {
      "inputs": [
        {
          "internalType": "uint256",
          "name": "tokenId",
          "type": "uint256"
        },
        {
          "internalType": "uint256",
          "name": "burnId",
          "type": "uint256"
        }
      ],
      "name": "simulateCompositeSVG",
      "outputs": [
        {
          "internalType": "string",
          "name": "",
          "type": "string"
        }
      ],
      "stateMutability": "view",
      "type": "function"
    },
    {
      "inputs": [
        {
          "internalType": "bytes4",
          "name": "interfaceId",
          "type": "bytes4"
        }
      ],
      "name": "supportsInterface",
      "outputs": [
        {
          "internalType": "bool",
          "name": "",
          "type": "bool"
        }
      ],
      "stateMutability": "view",
      "type": "function"
    },
    {
      "inputs": [
        {
          "internalType": "uint256",
          "name": "tokenId",
          "type": "uint256"
        }
      ],
      "name": "svg",
      "outputs": [
        {
          "internalType": "string",
          "name": "",
          "type": "string"
        }
      ],
      "stateMutability": "view",
      "type": "function"
    },
    {
      "inputs": [],
      "name": "symbol",
      "outputs": [
        {
          "internalType": "string",
          "name": "",
          "type": "string"
        }
      ],
      "stateMutability": "view",
      "type": "function"
    },
    {
      "inputs": [
        {
          "internalType": "uint256",
          "name": "tokenId",
          "type": "uint256"
        }
      ],
      "name": "tokenURI",
      "outputs": [
        {
          "internalType": "string",
          "name": "",
          "type": "string"
        }
      ],
      "stateMutability": "view",
      "type": "function"
    },
    {
      "inputs": [],
      "name": "totalSupply",
      "outputs": [
        {
          "internalType": "uint256",
          "name": "",
          "type": "uint256"
        }
      ],
      "stateMutability": "view",
      "type": "function"
    },
    {
      "inputs": [
        {
          "internalType": "address",
          "name": "from",
          "type": "address"
        },
        {
          "internalType": "address",
          "name": "to",
          "type": "address"
        },
        {
          "internalType": "uint256",
          "name": "tokenId",
          "type": "uint256"
        }
      ],
      "name": "transferFrom",
      "outputs": [],
      "stateMutability": "nonpayable",
      "type": "function"
    }
  ],
  "bytecode": "0x608060405234801561001057600080fd5b506040518060400160405280600681526020017f4172726f77730000000000000000000000000000000000000000000000000000815250600090816100559190610374565b506040518060400160405280600681526020017f4152524f575300000000000000000000000000000000000000000000000000008152506001908161009a9190610374565b50737c5f73ce00f62e1f0364d968684b343ddad363ac600660006101000a81548173ffffffffffffffffffffffffffffffffffffffff021916908373ffffffffffffffffffffffffffffffffffffffff16021790555042600760010160086101000a81548163ffffffff021916908363ffffffff1602179055506001600760030181905550610446565b600081519050919050565b7f4e487b7100000000000000000000000000000000000000000000000000000000600052604160045260246000fd5b7f4e487b7100000000000000000000000000000000000000000000000000000000600052602260045260246000fd5b600060028204905060018216806101a557607f821691505b6020821081036101b8576101b761015e565b5b50919050565b60008190508160005260206000209050919050565b60006020601f8301049050919050565b600082821b905092915050565b6000600883026102207fffffffffffffffffffffffffffffffffffffffffffffffffffffffffffffffff826101e3565b61022a86836101e3565b95508019841693508086168417925050509392505050565b6000819050919050565b6000819050919050565b600061027161026c61026784610242565b61024c565b610242565b9050919050565b6000819050919050565b61028b83610256565b61029f61029782610278565b8484546101f0565b825550505050565b600090565b6102b46102a7565b6102bf818484610282565b505050565b5b818110156102e3576102d86000826102ac565b6001810190506102c5565b5050565b601f821115610328576102f9816101be565b610302846101d3565b81016020851015610311578190505b61032561031d856101d3565b8301826102c4565b50505b505050565b600082821c905092915050565b600061034b6000198460080261032d565b1980831691505092915050565b6000610364838361033a565b9150826002028217905092915050565b61037d82610124565b67ffffffffffffffff8111156103965761039561012f565b5b6103a0825461018d565b6103ab8282856102e7565b600060209050601f8311600181146103de57600084156103cc578287015190505b6103d68582610358565b86555061043e565b601f1984166103ec866101be565b60005b82811015610414578489015182556001820191506020850194506020810190506103ef565b86831015610431578489015161042d601f89168261033a565b8355505b6001600288020188555050505b505050505050565b615f84806104556000396000f3fe608060405234801561001057600080fd5b50600436106101da5760003560e01c80635427c791116101045780639b21151c116100a2578063c87b56dd11610071578063c87b56dd14610578578063e8b69127146105a8578063e985e9c5146105c4578063ec9da8af146105f4576101da565b80639b21151c146104df578063a22cb4651461050f578063b88d4fde1461052b578063bd11f69d14610547576101da565b806370a08231116100de57806370a0823114610443578063757991a814610473578063859e7d321461049157806395d89b41146104c1576101da565b80635427c791146103db5780635c5b69a9146103f75780636352211e14610413576101da565b8063212052261161017c57806342966c681161014b57806342966c681461035557806343e53adf1461037157806344b285db1461038f57806350f11805146103bf576101da565b806321205226146102f7578063239ffa681461031357806323b872dd1461031d57806342842e0e14610339576101da565b8063081812fc116101b8578063081812fc1461025d578063095ea7b31461028d57806318160ddd146102a95780631f7059ea146102c7576101da565b806301ffc9a7146101df57806302a6429d1461020f57806306fdde031461023f575b600080fd5b6101f960048036038101906101f49190613f2c565b610610565b6040516102069190613f74565b60405180910390f35b61022960048036038101906102249190613fc5565b6106f2565b6040516102369190614095565b60405180910390f35b610247610785565b6040516102549190614095565b60405180910390f35b610277600480360381019061027291906140b7565b610817565b6040516102849190614125565b60405180910390f35b6102a760048036038101906102a2919061416c565b61085d565b005b6102b1610937565b6040516102be91906141bb565b60405180910390f35b6102e160048036038101906102dc91906140b7565b61097a565b6040516102ee919061451e565b60405180910390f35b610311600480360381019061030c9190613fc5565b610a05565b005b61031b610a4c565b005b6103376004803603810190610332919061453a565b610ca4565b005b610353600480360381019061034e919061453a565b610cfb565b005b61036f600480360381019061036a91906140b7565b610d1b565b005b610379610da0565b60405161038691906145ec565b60405180910390f35b6103a960048036038101906103a491906140b7565b610dc6565b6040516103b69190614095565b60405180910390f35b6103d960048036038101906103d4919061466c565b610eca565b005b6103f560048036038101906103f09190614719565b610f6d565b005b610411600480360381019061040c919061476c565b6113db565b005b61042d600480360381019061042891906140b7565b611882565b60405161043a9190614125565b60405180910390f35b61045d600480360381019061045891906147cc565b6118ff565b60405161046a91906141bb565b60405180910390f35b61047b6119ad565b60405161048891906141bb565b60405180910390f35b6104ab60048036038101906104a691906140b7565b6119ba565b6040516104b8919061489c565b60405180910390f35b6104c9611a9c565b6040516104d69190614095565b60405180910390f35b6104f960048036038101906104f49190613fc5565b611b2e565b604051610506919061451e565b60405180910390f35b610529600480360381019061052491906148b7565b611e2c565b005b61054560048036038101906105409190614a27565b611e42565b005b610561600480360381019061055c91906140b7565b611e9b565b60405161056f929190614c65565b60405180910390f35b610592600480360381019061058d91906140b7565b611fa2565b60405161059f9190614095565b60405180910390f35b6105c260048036038101906105bd9190614c9c565b612034565b005b6105de60048036038101906105d99190614ce9565b6122f6565b6040516105eb9190613f74565b60405180910390f35b61060e6004803603810190610609919061466c565b61238a565b005b60007f80ac58cd000000000000000000000000000000000000000000000000000000007bffffffffffffffffffffffffffffffffffffffffffffffffffffffff1916827bffffffffffffffffffffffffffffffffffffffffffffffffffffffff191614806106db57507f5b5e139f000000000000000000000000000000000000000000000000000000007bffffffffffffffffffffffffffffffffffffffffffffffffffffffff1916827bffffffffffffffffffffffffffffffffffffffffffffffffffffffff1916145b806106eb57506106ea8261242d565b5b9050919050565b606073__$16c56498840e565c43338e1647e2745caa$__63e66c34746107188585611b2e565b60076040518363ffffffff1660e01b8152600401610737929190614ffa565b600060405180830381865af4158015610754573d6000803e3d6000fd5b505050506040513d6000823e3d601f19601f8201168201806040525081019061077d9190615095565b905092915050565b6060600080546107949061510d565b80601f01602080910402602001604051908101604052809291908181526020018280546107c09061510d565b801561080d5780601f106107e25761010080835404028352916020019161080d565b820191906000526020600020905b8154815290600101906020018083116107f057829003601f168201915b5050505050905090565b600061082282612497565b6004600083815260200190815260200160002060009054906101000a900473ffffffffffffffffffffffffffffffffffffffff169050919050565b600061086882611882565b90508073ffffffffffffffffffffffffffffffffffffffff168373ffffffffffffffffffffffffffffffffffffffff1614806108f157508073ffffffffffffffffffffffffffffffffffffffff166108be6124d9565b73ffffffffffffffffffffffffffffffffffffffff16141580156108f057506108ee816108e96124d9565b6122f6565b155b5b15610928576040517f2c39ec4e00000000000000000000000000000000000000000000000000000000815260040160405180910390fd5b61093283836124e1565b505050565b6000600760010160049054906101000a900463ffffffff16600760010160009054906101000a900463ffffffff1661096f919061516d565b63ffffffff16905090565b610982613b70565b73__$16c56498840e565c43338e1647e2745caa$__63f004743d8360076040518363ffffffff1660e01b81526004016109bc9291906151b4565b6103c060405180830381865af41580156109da573d6000803e3d6000fd5b505050506040513d601f19601f820116820180604052508101906109fe91906155eb565b9050919050565b610a0f828261259a565b6007600101600481819054906101000a900463ffffffff1660010191906101000a81548163ffffffff021916908363ffffffff1602179055505050565b60006007600201600060076003015481526020019081526020016000209050600015158160000160189054906101000a900460ff1615151480610ade5750600015158160000160199054906101000a900460ff161515148015610add575061010043610ab89190615619565b8160000160109054906101000a900467ffffffffffffffff1667ffffffffffffffff16105b5b15610b3c57603243610af0919061564d565b8160000160106101000a81548167ffffffffffffffff021916908367ffffffffffffffff16021790555060018160000160186101000a81548160ff021916908315150217905550610ca1565b8060000160109054906101000a900467ffffffffffffffff1667ffffffffffffffff16431115610ca0576fffffffffffffffffffffffffffffffff8160000160109054906101000a900467ffffffffffffffff1667ffffffffffffffff164044604051602001610bad9291906156cd565b6040516020818303038152906040528051906020012060001c610bd09190615728565b8160000160006101000a8154816fffffffffffffffffffffffffffffffff02191690836fffffffffffffffffffffffffffffffff16021790555060018160000160196101000a81548160ff0219169083151502179055508060000160109054906101000a900467ffffffffffffffff1667ffffffffffffffff166007600301547f78611aecfda8d341359c248df527c95aef93d446c92bb928b2a81b7abcb1d8d960405160405180910390a360076003016000815480929190610c9290615759565b9190505550610c9f610a4c565b5b5b50565b610cb5610caf6124d9565b826127a0565b610ceb576040517feaf3884400000000000000000000000000000000000000000000000000000000815260040160405180910390fd5b610cf6838383612835565b505050565b610d1683838360405180602001604052806000815250611e42565b505050565b610d2533826127a0565b610d5b576040517f3d693ada00000000000000000000000000000000000000000000000000000000815260040160405180910390fd5b610d6481612b13565b6007600101600481819054906101000a900463ffffffff1660010191906101000a81548163ffffffff021916908363ffffffff16021790555050565b600660009054906101000a900473ffffffffffffffffffffffffffffffffffffffff1681565b606073__$16c56498840e565c43338e1647e2745caa$__63e66c347473__$16c56498840e565c43338e1647e2745caa$__63f004743d8560076040518363ffffffff1660e01b8152600401610e1c9291906151b4565b6103c060405180830381865af4158015610e3a573d6000803e3d6000fd5b505050506040513d601f19601f82011682018060405250810190610e5e91906155eb565b60076040518363ffffffff1660e01b8152600401610e7d929190614ffa565b600060405180830381865af4158015610e9a573d6000803e3d6000fd5b505050506040513d6000823e3d601f19601f82011682018060405250810190610ec39190615095565b9050919050565b6000610ed885858585612c61565b905060005b81811015610f2c57610f21868683818110610efb57610efa6157a1565b5b90506020020135858584818110610f1557610f146157a1565b5b90506020020135612cad565b806001019050610edd565b5080600760010160048282829054906101000a900463ffffffff160192506101000a81548163ffffffff021916908363ffffffff1602179055505050505050565b8015611393576000600760000160008581526020019081526020016000206040518060e001604052908160008201600680602002604051908101604052809291908260068015610ffa576020028201916000905b82829054906101000a900461ffff1661ffff1681526020019060020190602082600101049283019260010382029150808411610fc15790505b5050505050815260200160018201600580602002604051908101604052809291908260058015611065576020028201916000905b82829054906101000a900460ff1660ff168152602001906001019060208260000104928301926001038202915080841161102e5790505b50505050508152602001600282016005806020026040519081016040528092919082600580156110d0576020028201916000905b82829054906101000a900460ff1660ff16815260200190600101906020826000010492830192600103820291508084116110995790505b505050505081526020016003820160009054906101000a900460ff1660ff1660ff1681526020016003820160019054906101000a900463ffffffff1663ffffffff1663ffffffff1681526020016003820160059054906101000a900461ffff1661ffff1661ffff1681526020016003820160079054906101000a900462ffffff1662ffffff1662ffffff16815250509050600760000160008481526020019081526020016000206007600001600086815260200190815260200160002060008201816000019060066111a3929190613be9565b5060018201816001019060056111ba929190613c34565b5060028201816002019060056111d1929190613c34565b506003820160009054906101000a900460ff168160030160006101000a81548160ff021916908360ff1602179055506003820160019054906101000a900463ffffffff168160030160016101000a81548163ffffffff021916908363ffffffff1602179055506003820160059054906101000a900461ffff168160030160056101000a81548161ffff021916908361ffff1602179055506003820160079054906101000a900462ffffff168160030160076101000a81548162ffffff021916908362ffffff16021790555090505080600760000160008581526020019081526020016000206000820151816000019060066112cd929190613c7f565b506020820151816001019060056112e5929190613d1c565b506040820151816002019060056112fd929190613d1c565b5060608201518160030160006101000a81548160ff021916908360ff16021790555060808201518160030160016101000a81548163ffffffff021916908363ffffffff16021790555060a08201518160030160056101000a81548161ffff021916908361ffff16021790555060c08201518160030160076101000a81548162ffffff021916908362ffffff160217905550905050505b61139d8383612cad565b6007600101600481819054906101000a900463ffffffff1660010191906101000a81548163ffffffff021916908363ffffffff160217905550505050565b60008383905090506113eb610a4c565b60005b8181101561184257600085858381811061140b5761140a6157a1565b5b9050602002013590506000600660009054906101000a900473ffffffffffffffffffffffffffffffffffffffff1673ffffffffffffffffffffffffffffffffffffffff16636352211e836040518263ffffffff1660e01b815260040161147191906141bb565b602060405180830381865afa15801561148e573d6000803e3d6000fd5b505050506040513d601f19601f820116820180604052508101906114b291906157e5565b90503373ffffffffffffffffffffffffffffffffffffffff168173ffffffffffffffffffffffffffffffffffffffff161415801561158b5750600660009054906101000a900473ffffffffffffffffffffffffffffffffffffffff1673ffffffffffffffffffffffffffffffffffffffff1663e985e9c582336040518363ffffffff1660e01b8152600401611548929190615812565b602060405180830381865afa158015611565573d6000803e3d6000fd5b505050506040513d601f19601f82011682018060405250810190611589919061583b565b155b801561165e57503373ffffffffffffffffffffffffffffffffffffffff16600660009054906101000a900473ffffffffffffffffffffffffffffffffffffffff1673ffffffffffffffffffffffffffffffffffffffff1663081812fc846040518263ffffffff1660e01b815260040161160491906141bb565b602060405180830381865afa158015611621573d6000803e3d6000fd5b505050506040513d601f19601f8201168201806040525081019061164591906157e5565b73ffffffffffffffffffffffffffffffffffffffff1614155b15611695576040517f3d693ada00000000000000000000000000000000000000000000000000000000815260040160405180910390fd5b600660009054906101000a900473ffffffffffffffffffffffffffffffffffffffff1673ffffffffffffffffffffffffffffffffffffffff166342966c68836040518263ffffffff1660e01b81526004016116f091906141bb565b600060405180830381600087803b15801561170a57600080fd5b505af115801561171e573d6000803e3d6000fd5b505050506000600760000160008481526020019081526020016000209050611761600760010160089054906101000a900463ffffffff1663ffffffff1642612f16565b8160030160076101000a81548162ffffff021916908362ffffff1602179055506007600301548160030160016101000a81548163ffffffff021916908363ffffffff160217905550828160030160056101000a81548161ffff021916908361ffff16021790555060008160030160006101000a81548160ff021916908360ff1602179055508573ffffffffffffffffffffffffffffffffffffffff163373ffffffffffffffffffffffffffffffffffffffff161461182957611824863385612f46565b611834565b6118333384612f66565b5b8360010193505050506113ee565b5080600760010160008282829054906101000a900463ffffffff160192506101000a81548163ffffffff021916908363ffffffff16021790555050505050565b60008061188e83612f84565b9050600073ffffffffffffffffffffffffffffffffffffffff168173ffffffffffffffffffffffffffffffffffffffff16036118f6576040517f0397bc7f00000000000000000000000000000000000000000000000000000000815260040160405180910390fd5b80915050919050565b60008073ffffffffffffffffffffffffffffffffffffffff168273ffffffffffffffffffffffffffffffffffffffff1603611966576040517fb8f91ff300000000000000000000000000000000000000000000000000000000815260040160405180910390fd5b600360008373ffffffffffffffffffffffffffffffffffffffff1673ffffffffffffffffffffffffffffffffffffffff168152602001908152602001600020549050919050565b6000600760030154905090565b6119c2613db6565b600760020160008381526020019081526020016000206040518060800160405290816000820160009054906101000a90046fffffffffffffffffffffffffffffffff166fffffffffffffffffffffffffffffffff166fffffffffffffffffffffffffffffffff1681526020016000820160109054906101000a900467ffffffffffffffff1667ffffffffffffffff1667ffffffffffffffff1681526020016000820160189054906101000a900460ff161515151581526020016000820160199054906101000a900460ff1615151515815250509050919050565b606060018054611aab9061510d565b80601f0160208091040260200160405190810160405280929190818152602001828054611ad79061510d565b8015611b245780601f10611af957610100808354040283529160200191611b24565b820191906000526020600020905b815481529060010190602001808311611b0757829003601f168201915b5050505050905090565b611b36613b70565b611b3f83612497565b611b4882612497565b60006007600001600085815260200190815260200160002060030160009054906101000a900460ff1690506000600182611b829190615868565b905073__$16c56498840e565c43338e1647e2745caa$__63fbfc36b6868360076040518463ffffffff1660e01b8152600401611bc0939291906158ac565b6103c060405180830381865af4158015611bde573d6000803e3d6000fd5b505050506040513d601f19601f82011682018060405250810190611c0291906155eb565b9250838360000151600001518360ff1660068110611c2357611c226157a1565b5b602002019061ffff16908161ffff168152505060058260ff161015611cb657600080611c4f8787612fc1565b91509150808560000151602001518560ff1660058110611c7257611c716157a1565b5b602002019060ff16908160ff1681525050818560000151604001518560ff1660058110611ca257611ca16157a1565b5b602002019060ff16908160ff168152505050505b8260c00151158015611ccb575060078260ff16105b611cd6576000611cfa565b8260000151600001518260ff1660068110611cf457611cf36157a1565b5b60200201515b8360a0019061ffff16908161ffff168152505073__$16c56498840e565c43338e1647e2745caa$__638b59fdad84836040518363ffffffff1660e01b8152600401611d469291906158e3565b602060405180830381865af4158015611d63573d6000803e3d6000fd5b505050506040513d601f19601f82011682018060405250810190611d87919061590e565b8360e0019060ff16908160ff168152505073__$16c56498840e565c43338e1647e2745caa$__630c14f3e984836040518363ffffffff1660e01b8152600401611dd19291906158e3565b602060405180830381865af4158015611dee573d6000803e3d6000fd5b505050506040513d601f19601f82011682018060405250810190611e12919061590e565b83610100019060ff16908160ff1681525050505092915050565b611e3e611e376124d9565b838361318a565b5050565b611e53611e4d6124d9565b836127a0565b611e89576040517feaf3884400000000000000000000000000000000000000000000000000000000815260040160405180910390fd5b611e95848484846132ed565b50505050565b60608073__$16c56498840e565c43338e1647e2745caa$__63c9eb2f8873__$16c56498840e565c43338e1647e2745caa$__63f004743d8660076040518363ffffffff1660e01b8152600401611ef29291906151b4565b6103c060405180830381865af4158015611f10573d6000803e3d6000fd5b505050506040513d601f19601f82011682018060405250810190611f3491906155eb565b60076040518363ffffffff1660e01b8152600401611f53929190614ffa565b600060405180830381865af4158015611f70573d6000803e3d6000fd5b505050506040513d6000823e3d601f19601f82011682018060405250810190611f999190615b80565b91509150915091565b6060611fad82612497565b73__$7ffb2285b63167883babea1a979cfcb840$__63c2a4e8fe8360076040518363ffffffff1660e01b8152600401611fe79291906151b4565b600060405180830381865af4158015612004573d6000803e3d6000fd5b505050506040513d6000823e3d601f19601f8201168201806040525081019061202d9190615bf8565b9050919050565b600082829050905060408114612076576040517fe778681d00000000000000000000000000000000000000000000000000000000815260040160405180910390fd5b60005b8181101561214e576000848483818110612096576120956157a1565b5b90506020020135905060066007600001600083815260200190815260200160002060030160009054906101000a900460ff1660ff1614612102576040517ff5615c7700000000000000000000000000000000000000000000000000000000815260040160405180910390fd5b61210c33826127a0565b612142576040517f3d693ada00000000000000000000000000000000000000000000000000000000815260040160405180910390fd5b81600101915050612079565b50600083836000818110612165576121646157a1565b5b90506020020135905060006007600001600083815260200190815260200160002090506121ad600760010160089054906101000a900463ffffffff1663ffffffff1642612f16565b8160030160076101000a81548162ffffff021916908362ffffff16021790555060078160030160006101000a81548160ff021916908360ff1602179055506000600190505b838110156122275761221c8686838181106122105761220f6157a1565b5b90506020020135612b13565b8060010190506121f2565b50603f600760010160048282829054906101000a900463ffffffff160192506101000a81548163ffffffff021916908363ffffffff1602179055508484600190809261227593929190615c4b565b604051612283929190615cfb565b6040518091039020827f8487c13f40adf819be704c2686b8eaf22250a17df721323aea90991ea470d70060405160405180910390a37ff8e1a15aba9398e019f0b49df1a4fde98ee17ae345cb5f6b5e2c27f5033e8ce7826040516122e791906141bb565b60405180910390a15050505050565b6000600560008473ffffffffffffffffffffffffffffffffffffffff1673ffffffffffffffffffffffffffffffffffffffff16815260200190815260200160002060008373ffffffffffffffffffffffffffffffffffffffff1673ffffffffffffffffffffffffffffffffffffffff16815260200190815260200160002060009054906101000a900460ff16905092915050565b600061239885858585612c61565b905060005b818110156123ec576123e18686838181106123bb576123ba6157a1565b5b905060200201358585848181106123d5576123d46157a1565b5b9050602002013561259a565b80600101905061239d565b5080600760010160048282829054906101000a900463ffffffff160192506101000a81548163ffffffff021916908363ffffffff1602179055505050505050565b60007f01ffc9a7000000000000000000000000000000000000000000000000000000007bffffffffffffffffffffffffffffffffffffffffffffffffffffffff1916827bffffffffffffffffffffffffffffffffffffffffffffffffffffffff1916149050919050565b6124a081613340565b6124d6576040517f0397bc7f00000000000000000000000000000000000000000000000000000000815260040160405180910390fd5b50565b600033905090565b816004600083815260200190815260200160002060006101000a81548173ffffffffffffffffffffffffffffffffffffffff021916908373ffffffffffffffffffffffffffffffffffffffff160217905550808273ffffffffffffffffffffffffffffffffffffffff1661255483611882565b73ffffffffffffffffffffffffffffffffffffffff167f8c5be1e5ebec7d5bd14f71427d1e84f3dd0314c0f7b2291e5b200ac8c7c3b92560405160405180910390a45050565b60006125a68383613381565b50915050806007600001600085815260200190815260200160002060008201816000019060066125d7929190613be9565b5060018201816001019060056125ee929190613c34565b506002820181600201906005612605929190613c34565b506003820160009054906101000a900460ff168160030160006101000a81548160ff021916908360ff1602179055506003820160019054906101000a900463ffffffff168160030160016101000a81548163ffffffff021916908363ffffffff1602179055506003820160059054906101000a900461ffff168160030160056101000a81548161ffff021916908361ffff1602179055506003820160079054906101000a900462ffffff168160030160076101000a81548162ffffff021916908362ffffff1602179055509050506126f8600760010160089054906101000a900463ffffffff1663ffffffff1642612f16565b6007600001600085815260200190815260200160002060030160076101000a81548162ffffff021916908362ffffff16021790555061273682612b13565b82827f2b437d4aa9e3060a2b27689497c04db7c378ca296b51df4ffaea18fa6f56881a60405160405180910390a37ff8e1a15aba9398e019f0b49df1a4fde98ee17ae345cb5f6b5e2c27f5033e8ce78360405161279391906141bb565b60405180910390a1505050565b6000806127ac83611882565b90508073ffffffffffffffffffffffffffffffffffffffff168473ffffffffffffffffffffffffffffffffffffffff1614806127ee57506127ed81856122f6565b5b8061282c57508373ffffffffffffffffffffffffffffffffffffffff1661281484610817565b73ffffffffffffffffffffffffffffffffffffffff16145b91505092915050565b8273ffffffffffffffffffffffffffffffffffffffff1661285582611882565b73ffffffffffffffffffffffffffffffffffffffff16146128a2576040517fb8f91ff300000000000000000000000000000000000000000000000000000000815260040160405180910390fd5b600073ffffffffffffffffffffffffffffffffffffffff168273ffffffffffffffffffffffffffffffffffffffff1603612908576040517f6474b5a200000000000000000000000000000000000000000000000000000000815260040160405180910390fd5b612915838383600161345f565b8273ffffffffffffffffffffffffffffffffffffffff1661293582611882565b73ffffffffffffffffffffffffffffffffffffffff1614612982576040517fb8f91ff300000000000000000000000000000000000000000000000000000000815260040160405180910390fd5b6004600082815260200190815260200160002060006101000a81549073ffffffffffffffffffffffffffffffffffffffff02191690556001600360008573ffffffffffffffffffffffffffffffffffffffff1673ffffffffffffffffffffffffffffffffffffffff168152602001908152602001600020600082825403925050819055506001600360008473ffffffffffffffffffffffffffffffffffffffff1673ffffffffffffffffffffffffffffffffffffffff16815260200190815260200160002060008282540192505081905550816002600083815260200190815260200160002060006101000a81548173ffffffffffffffffffffffffffffffffffffffff021916908373ffffffffffffffffffffffffffffffffffffffff160217905550808273ffffffffffffffffffffffffffffffffffffffff168473ffffffffffffffffffffffffffffffffffffffff167fddf252ad1be2c89b69c2b068fc378daa952ba7f163c4a11628f55a4df523b3ef60405160405180910390a4612b0e8383836001613585565b505050565b6000612b1e82611882565b9050612b2e81600084600161345f565b612b3782611882565b90506004600083815260200190815260200160002060006101000a81549073ffffffffffffffffffffffffffffffffffffffff02191690556001600360008373ffffffffffffffffffffffffffffffffffffffff1673ffffffffffffffffffffffffffffffffffffffff168152602001908152602001600020600082825403925050819055506002600083815260200190815260200160002060006101000a81549073ffffffffffffffffffffffffffffffffffffffff021916905581600073ffffffffffffffffffffffffffffffffffffffff168273ffffffffffffffffffffffffffffffffffffffff167fddf252ad1be2c89b69c2b068fc378daa952ba7f163c4a11628f55a4df523b3ef60405160405180910390a4612c5d816000846001613585565b5050565b6000848490509050828290508114612ca5576040517fe778681d00000000000000000000000000000000000000000000000000000000815260040160405180910390fd5b949350505050565b600080612cba8484613381565b92505091506000600182612cce9190615868565b905060058260ff161015612d6457600080612ce98787612fc1565b9150915080856001018560ff1660058110612d0757612d066157a1565b5b602091828204019190066101000a81548160ff021916908360ff16021790555081856002018560ff1660058110612d4157612d406157a1565b5b602091828204019190066101000a81548160ff021916908360ff16021790555050505b612d89600760010160089054906101000a900463ffffffff1663ffffffff1642612f16565b8360030160076101000a81548162ffffff021916908362ffffff16021790555083836000018360ff1660068110612dc357612dc26157a1565b5b601091828204019190066002026101000a81548161ffff021916908361ffff160217905550808360030160006101000a81548160ff021916908360ff160217905550612e0e84612b13565b73__$16c56498840e565c43338e1647e2745caa$__6353bfca206040518163ffffffff1660e01b815260040161010060405180830381865af4158015612e58573d6000803e3d6000fd5b505050506040513d601f19601f82011682018060405250810190612e7c9190615dc5565b8360030160009054906101000a900460ff1660ff1660088110612ea257612ea16157a1565b5b602002015160ff1684867f905feedea1eda3a8be0478a0f07f90de1ac162b88dfb7cc30cb5d2d57323f0af60405160405180910390a47ff8e1a15aba9398e019f0b49df1a4fde98ee17ae345cb5f6b5e2c27f5033e8ce785604051612f0791906141bb565b60405180910390a15050505050565b60006001620151808484612f2a9190615619565b612f349190615df3565b612f3e919061564d565b905092915050565b612f618383836040518060200160405280600081525061358b565b505050565b612f808282604051806020016040528060008152506135df565b5050565b60006002600083815260200190815260200160002060009054906101000a900473ffffffffffffffffffffffffffffffffffffffff169050919050565b600080600073__$16c56498840e565c43338e1647e2745caa$__63f004743d8660076040518363ffffffff1660e01b81526004016130009291906151b4565b6103c060405180830381865af415801561301e573d6000803e3d6000fd5b505050506040513d601f19601f8201168201806040525081019061304291906155eb565b9050600073__$16c56498840e565c43338e1647e2745caa$__63f004743d8660076040518363ffffffff1660e01b81526004016130809291906151b4565b6103c060405180830381865af415801561309e573d6000803e3d6000fd5b505050506040513d601f19601f820116820180604052508101906130c291906155eb565b90506000826040015182604001516040516020016130e1929190615e24565b6040516020818303038152906040528051906020012060001c90506050613109826064613631565b1161312757613122836101000151836101000151613670565b61316a565b60006002826131369190615728565b146131545761314f83610100015183610100015161368f565b613169565b6131688361010001518361010001516136ae565b5b5b945061317e8360e001518360e001516136df565b93505050509250929050565b8173ffffffffffffffffffffffffffffffffffffffff168373ffffffffffffffffffffffffffffffffffffffff16036131ef576040517f2c39ec4e00000000000000000000000000000000000000000000000000000000815260040160405180910390fd5b80600560008573ffffffffffffffffffffffffffffffffffffffff1673ffffffffffffffffffffffffffffffffffffffff16815260200190815260200160002060008473ffffffffffffffffffffffffffffffffffffffff1673ffffffffffffffffffffffffffffffffffffffff16815260200190815260200160002060006101000a81548160ff0219169083151502179055508173ffffffffffffffffffffffffffffffffffffffff168373ffffffffffffffffffffffffffffffffffffffff167f17307eab39ab6107e8899845ad3d59bd9653f200f220920489ca2b5937696c31836040516132e09190613f74565b60405180910390a3505050565b6132f8848484612835565b61330484848484613701565b61333a576040517f91ec2e4700000000000000000000000000000000000000000000000000000000815260040160405180910390fd5b50505050565b60008073ffffffffffffffffffffffffffffffffffffffff1661336283612f84565b73ffffffffffffffffffffffffffffffffffffffff1614159050919050565b60008060006007600001600086815260200190815260200160002092506007600001600085815260200190815260200160002091508260030160009054906101000a900460ff1690506133d433866127a0565b15806133e757506133e533856127a0565b155b8061340957508160030160009054906101000a900460ff1660ff168160ff1614155b8061341357508385145b80613421575060058160ff16115b15613458576040517f3d693ada00000000000000000000000000000000000000000000000000000000815260040160405180910390fd5b9250925092565b600181111561357f57600073ffffffffffffffffffffffffffffffffffffffff168473ffffffffffffffffffffffffffffffffffffffff16146134f35780600360008673ffffffffffffffffffffffffffffffffffffffff1673ffffffffffffffffffffffffffffffffffffffff16815260200190815260200160002060008282546134eb9190615619565b925050819055505b600073ffffffffffffffffffffffffffffffffffffffff168373ffffffffffffffffffffffffffffffffffffffff161461357e5780600360008573ffffffffffffffffffffffffffffffffffffffff1673ffffffffffffffffffffffffffffffffffffffff1681526020019081526020016000206000828254613576919061564d565b925050819055505b5b50505050565b50505050565b613596848484613869565b6135a36000858484613701565b6135d9576040517f91ec2e4700000000000000000000000000000000000000000000000000000000815260040160405180910390fd5b50505050565b6135e9838361393d565b6135f66000848484613701565b61362c576040517f91ec2e4700000000000000000000000000000000000000000000000000000000815260040160405180910390fd5b505050565b600081836040516020016136459190615e50565b6040516020818303038152906040528051906020012060001c6136689190615728565b905092915050565b60008160ff168360ff16106136855781613687565b825b905092915050565b60008160ff168360ff16116136a457816136a6565b825b905092915050565b60008160ff168360ff16116136c357826136d7565b60008260ff16116136d457826136d6565b815b5b905092915050565b600060018284161660018360ff16901c60018560ff16901c0101905092915050565b600061370c846139b5565b1561385c578373ffffffffffffffffffffffffffffffffffffffff1663150b7a026137356124d9565b8786866040518563ffffffff1660e01b81526004016137579493929190615ec0565b6020604051808303816000875af192505050801561379357506040513d601f19601f820116820180604052508101906137909190615f21565b60015b61380c573d80600081146137c3576040519150601f19603f3d011682016040523d82523d6000602084013e6137c8565b606091505b506000815103613804576040517f91ec2e4700000000000000000000000000000000000000000000000000000000815260040160405180910390fd5b805181602001fd5b63150b7a0260e01b7bffffffffffffffffffffffffffffffffffffffffffffffffffffffff1916817bffffffffffffffffffffffffffffffffffffffffffffffffffffffff191614915050613861565b600190505b949350505050565b61387383826139d8565b808273ffffffffffffffffffffffffffffffffffffffff16600073ffffffffffffffffffffffffffffffffffffffff167fddf252ad1be2c89b69c2b068fc378daa952ba7f163c4a11628f55a4df523b3ef60405160405180910390a4808373ffffffffffffffffffffffffffffffffffffffff168373ffffffffffffffffffffffffffffffffffffffff167fddf252ad1be2c89b69c2b068fc378daa952ba7f163c4a11628f55a4df523b3ef60405160405180910390a4613938600084836001613585565b505050565b61394782826139d8565b808273ffffffffffffffffffffffffffffffffffffffff16600073ffffffffffffffffffffffffffffffffffffffff167fddf252ad1be2c89b69c2b068fc378daa952ba7f163c4a11628f55a4df523b3ef60405160405180910390a46139b1600083836001613585565b5050565b6000808273ffffffffffffffffffffffffffffffffffffffff163b119050919050565b600073ffffffffffffffffffffffffffffffffffffffff168273ffffffffffffffffffffffffffffffffffffffff1603613a3e576040517f6474b5a200000000000000000000000000000000000000000000000000000000815260040160405180910390fd5b613a4781613340565b15613a7e576040517f5a5ab17e00000000000000000000000000000000000000000000000000000000815260040160405180910390fd5b613a8c60008383600161345f565b613a9581613340565b15613acc576040517f5a5ab17e00000000000000000000000000000000000000000000000000000000815260040160405180910390fd5b6001600360008473ffffffffffffffffffffffffffffffffffffffff1673ffffffffffffffffffffffffffffffffffffffff16815260200190815260200160002060008282540192505081905550816002600083815260200190815260200160002060006101000a81548173ffffffffffffffffffffffffffffffffffffffff021916908373ffffffffffffffffffffffffffffffffffffffff1602179055505050565b604051806101600160405280613b84613dfe565b815260200160001515815260200160008152602001600060ff168152602001600015158152602001600061ffff168152602001600015158152602001600060ff168152602001600060ff168152602001600060ff168152602001600060ff1681525090565b826006600f01601090048101928215613c235791600f016010900482015b82811115613c22578254825591600101919060010190613c07565b5b509050613c309190613e5f565b5090565b826005601f01602090048101928215613c6e5791601f016020900482015b82811115613c6d578254825591600101919060010190613c52565b5b509050613c7b9190613e5f565b5090565b826006600f01601090048101928215613d0b5791602002820160005b83821115613cdb57835183826101000a81548161ffff021916908361ffff1602179055509260200192600201602081600101049283019260010302613c9b565b8015613d095782816101000a81549061ffff0219169055600201602081600101049283019260010302613cdb565b505b509050613d189190613e5f565b5090565b826005601f01602090048101928215613da55791602002820160005b83821115613d7657835183826101000a81548160ff021916908360ff1602179055509260200192600101602081600001049283019260010302613d38565b8015613da35782816101000a81549060ff0219169055600101602081600001049283019260010302613d76565b505b509050613db29190613e5f565b5090565b604051806080016040528060006fffffffffffffffffffffffffffffffff168152602001600067ffffffffffffffff1681526020016000151581526020016000151581525090565b6040518060e00160405280613e11613e7c565b8152602001613e1e613e9e565b8152602001613e2b613e9e565b8152602001600060ff168152602001600063ffffffff168152602001600061ffff168152602001600062ffffff1681525090565b5b80821115613e78576000816000905550600101613e60565b5090565b6040518060c00160405280600690602082028036833780820191505090505090565b6040518060a00160405280600590602082028036833780820191505090505090565b6000604051905090565b600080fd5b600080fd5b60007fffffffff0000000000000000000000000000000000000000000000000000000082169050919050565b613f0981613ed4565b8114613f1457600080fd5b50565b600081359050613f2681613f00565b92915050565b600060208284031215613f4257613f41613eca565b5b6000613f5084828501613f17565b91505092915050565b60008115159050919050565b613f6e81613f59565b82525050565b6000602082019050613f896000830184613f65565b92915050565b6000819050919050565b613fa281613f8f565b8114613fad57600080fd5b50565b600081359050613fbf81613f99565b92915050565b60008060408385031215613fdc57613fdb613eca565b5b6000613fea85828601613fb0565b9250506020613ffb85828601613fb0565b9150509250929050565b600081519050919050565b600082825260208201905092915050565b60005b8381101561403f578082015181840152602081019050614024565b60008484015250505050565b6000601f19601f8301169050919050565b600061406782614005565b6140718185614010565b9350614081818560208601614021565b61408a8161404b565b840191505092915050565b600060208201905081810360008301526140af818461405c565b905092915050565b6000602082840312156140cd576140cc613eca565b5b60006140db84828501613fb0565b91505092915050565b600073ffffffffffffffffffffffffffffffffffffffff82169050919050565b600061410f826140e4565b9050919050565b61411f81614104565b82525050565b600060208201905061413a6000830184614116565b92915050565b61414981614104565b811461415457600080fd5b50565b60008135905061416681614140565b92915050565b6000806040838503121561418357614182613eca565b5b600061419185828601614157565b92505060206141a285828601613fb0565b9150509250929050565b6141b581613f8f565b82525050565b60006020820190506141d060008301846141ac565b92915050565b600060069050919050565b600081905092915050565b6000819050919050565b600061ffff82169050919050565b61420d816141f6565b82525050565b600061421f8383614204565b60208301905092915050565b6000602082019050919050565b614241816141d6565b61424b81846141e1565b9250614256826141ec565b8060005b8381101561428757815161426e8782614213565b96506142798361422b565b92505060018101905061425a565b505050505050565b600060059050919050565b600081905092915050565b6000819050919050565b600060ff82169050919050565b6142c5816142af565b82525050565b60006142d783836142bc565b60208301905092915050565b6000602082019050919050565b6142f98161428f565b614303818461429a565b925061430e826142a5565b8060005b8381101561433f57815161432687826142cb565b9650614331836142e3565b925050600181019050614312565b505050505050565b600063ffffffff82169050919050565b61436081614347565b82525050565b600062ffffff82169050919050565b61437e81614366565b82525050565b6102808201600082015161439b6000850182614238565b5060208201516143ae60c08501826142f0565b5060408201516143c26101608501826142f0565b5060608201516143d66102008501826142bc565b5060808201516143ea610220850182614357565b5060a08201516143fe610240850182614204565b5060c0820151614412610260850182614375565b50505050565b61442181613f59565b82525050565b61443081613f8f565b82525050565b6103c08201600082015161444d6000850182614384565b506020820151614461610280850182614418565b5060408201516144756102a0850182614427565b5060608201516144896102c08501826142bc565b50608082015161449d6102e0850182614418565b5060a08201516144b1610300850182614204565b5060c08201516144c5610320850182614418565b5060e08201516144d96103408501826142bc565b506101008201516144ee6103608501826142bc565b506101208201516145036103808501826142bc565b506101408201516145186103a08501826142bc565b50505050565b60006103c0820190506145346000830184614436565b92915050565b60008060006060848603121561455357614552613eca565b5b600061456186828701614157565b935050602061457286828701614157565b925050604061458386828701613fb0565b9150509250925092565b6000819050919050565b60006145b26145ad6145a8846140e4565b61458d565b6140e4565b9050919050565b60006145c482614597565b9050919050565b60006145d6826145b9565b9050919050565b6145e6816145cb565b82525050565b600060208201905061460160008301846145dd565b92915050565b600080fd5b600080fd5b600080fd5b60008083601f84011261462c5761462b614607565b5b8235905067ffffffffffffffff8111156146495761464861460c565b5b60208301915083602082028301111561466557614664614611565b5b9250929050565b6000806000806040858703121561468657614685613eca565b5b600085013567ffffffffffffffff8111156146a4576146a3613ecf565b5b6146b087828801614616565b9450945050602085013567ffffffffffffffff8111156146d3576146d2613ecf565b5b6146df87828801614616565b925092505092959194509250565b6146f681613f59565b811461470157600080fd5b50565b600081359050614713816146ed565b92915050565b60008060006060848603121561473257614731613eca565b5b600061474086828701613fb0565b935050602061475186828701613fb0565b925050604061476286828701614704565b9150509250925092565b60008060006040848603121561478557614784613eca565b5b600084013567ffffffffffffffff8111156147a3576147a2613ecf565b5b6147af86828701614616565b935093505060206147c286828701614157565b9150509250925092565b6000602082840312156147e2576147e1613eca565b5b60006147f084828501614157565b91505092915050565b60006fffffffffffffffffffffffffffffffff82169050919050565b61481e816147f9565b82525050565b600067ffffffffffffffff82169050919050565b61484181614824565b82525050565b60808201600082015161485d6000850182614815565b5060208201516148706020850182614838565b5060408201516148836040850182614418565b5060608201516148966060850182614418565b50505050565b60006080820190506148b16000830184614847565b92915050565b600080604083850312156148ce576148cd613eca565b5b60006148dc85828601614157565b92505060206148ed85828601614704565b9150509250929050565b600080fd5b7f4e487b7100000000000000000000000000000000000000000000000000000000600052604160045260246000fd5b6149348261404b565b810181811067ffffffffffffffff82111715614953576149526148fc565b5b80604052505050565b6000614966613ec0565b9050614972828261492b565b919050565b600067ffffffffffffffff821115614992576149916148fc565b5b61499b8261404b565b9050602081019050919050565b82818337600083830152505050565b60006149ca6149c584614977565b61495c565b9050828152602081018484840111156149e6576149e56148f7565b5b6149f18482856149a8565b509392505050565b600082601f830112614a0e57614a0d614607565b5b8135614a1e8482602086016149b7565b91505092915050565b60008060008060808587031215614a4157614a40613eca565b5b6000614a4f87828801614157565b9450506020614a6087828801614157565b9350506040614a7187828801613fb0565b925050606085013567ffffffffffffffff811115614a9257614a91613ecf565b5b614a9e878288016149f9565b91505092959194509250565b600081519050919050565b600082825260208201905092915050565b6000819050602082019050919050565b600082825260208201905092915050565b6000614af282614005565b614afc8185614ad6565b9350614b0c818560208601614021565b614b158161404b565b840191505092915050565b6000614b2c8383614ae7565b905092915050565b6000602082019050919050565b6000614b4c82614aaa565b614b568185614ab5565b935083602082028501614b6885614ac6565b8060005b85811015614ba45784840389528151614b858582614b20565b9450614b9083614b34565b925060208a01995050600181019050614b6c565b50829750879550505050505092915050565b600081519050919050565b600082825260208201905092915050565b6000819050602082019050919050565b6000614bee8383614427565b60208301905092915050565b6000602082019050919050565b6000614c1282614bb6565b614c1c8185614bc1565b9350614c2783614bd2565b8060005b83811015614c58578151614c3f8882614be2565b9750614c4a83614bfa565b925050600181019050614c2b565b5085935050505092915050565b60006040820190508181036000830152614c7f8185614b41565b90508181036020830152614c938184614c07565b90509392505050565b60008060208385031215614cb357614cb2613eca565b5b600083013567ffffffffffffffff811115614cd157614cd0613ecf565b5b614cdd85828601614616565b92509250509250929050565b60008060408385031215614d0057614cff613eca565b5b6000614d0e85828601614157565b9250506020614d1f85828601614157565b9150509250929050565b600081905092915050565b614d3d816141f6565b82525050565b6000614d4f8383614d34565b60208301905092915050565b614d64816141d6565b614d6e8184614d29565b9250614d79826141ec565b8060005b83811015614daa578151614d918782614d43565b9650614d9c8361422b565b925050600181019050614d7d565b505050505050565b600081905092915050565b614dc6816142af565b82525050565b6000614dd88383614dbd565b60208301905092915050565b614ded8161428f565b614df78184614db2565b9250614e02826142a5565b8060005b83811015614e33578151614e1a8782614dcc565b9650614e25836142e3565b925050600181019050614e06565b505050505050565b614e4481614347565b82525050565b614e5381614366565b82525050565b61028082016000820151614e706000850182614d5b565b506020820151614e8360c0850182614de4565b506040820151614e97610160850182614de4565b506060820151614eab610200850182614dbd565b506080820151614ebf610220850182614e3b565b5060a0820151614ed3610240850182614d34565b5060c0820151614ee7610260850182614e4a565b50505050565b614ef681613f59565b82525050565b614f0581613f8f565b82525050565b6103c082016000820151614f226000850182614e59565b506020820151614f36610280850182614eed565b506040820151614f4a6102a0850182614efc565b506060820151614f5e6102c0850182614dbd565b506080820151614f726102e0850182614eed565b5060a0820151614f86610300850182614d34565b5060c0820151614f9a610320850182614eed565b5060e0820151614fae610340850182614dbd565b50610100820151614fc3610360850182614dbd565b50610120820151614fd8610380850182614dbd565b50610140820151614fed6103a0850182614dbd565b50505050565b8082525050565b60006103e0820190506150106000830185614f0b565b61501e6103c0830184614ff3565b9392505050565b600061503861503384614977565b61495c565b905082815260208101848484011115615054576150536148f7565b5b61505f848285614021565b509392505050565b600082601f83011261507c5761507b614607565b5b815161508c848260208601615025565b91505092915050565b6000602082840312156150ab576150aa613eca565b5b600082015167ffffffffffffffff8111156150c9576150c8613ecf565b5b6150d584828501615067565b91505092915050565b7f4e487b7100000000000000000000000000000000000000000000000000000000600052602260045260246000fd5b6000600282049050600182168061512557607f821691505b602082108103615138576151376150de565b5b50919050565b7f4e487b7100000000000000000000000000000000000000000000000000000000600052601160045260246000fd5b600061517882614347565b915061518383614347565b9250828203905063ffffffff81111561519f5761519e61513e565b5b92915050565b6151ae81613f8f565b82525050565b60006040820190506151c960008301856151a5565b6151d66020830184614ff3565b9392505050565b600080fd5b600067ffffffffffffffff8211156151fd576151fc6148fc565b5b602082029050919050565b615211816141f6565b811461521c57600080fd5b50565b60008151905061522e81615208565b92915050565b6000615247615242846151e2565b61495c565b9050806020840283018581111561526157615260614611565b5b835b8181101561528a5780615276888261521f565b845260208401935050602081019050615263565b5050509392505050565b600082601f8301126152a9576152a8614607565b5b60066152b6848285615234565b91505092915050565b600067ffffffffffffffff8211156152da576152d96148fc565b5b602082029050919050565b6152ee816142af565b81146152f957600080fd5b50565b60008151905061530b816152e5565b92915050565b600061532461531f846152bf565b61495c565b9050806020840283018581111561533e5761533d614611565b5b835b81811015615367578061535388826152fc565b845260208401935050602081019050615340565b5050509392505050565b600082601f83011261538657615385614607565b5b6005615393848285615311565b91505092915050565b6153a581614347565b81146153b057600080fd5b50565b6000815190506153c28161539c565b92915050565b6153d181614366565b81146153dc57600080fd5b50565b6000815190506153ee816153c8565b92915050565b6000610280828403121561540b5761540a6151dd565b5b61541560e061495c565b9050600061542584828501615294565b60008301525060c061543984828501615371565b60208301525061016061544e84828501615371565b604083015250610200615463848285016152fc565b606083015250610220615478848285016153b3565b60808301525061024061548d8482850161521f565b60a0830152506102606154a2848285016153df565b60c08301525092915050565b6000815190506154bd816146ed565b92915050565b6000815190506154d281613f99565b92915050565b60006103c082840312156154ef576154ee6151dd565b5b6154fa61016061495c565b9050600061550a848285016153f4565b60008301525061028061551f848285016154ae565b6020830152506102a0615534848285016154c3565b6040830152506102c0615549848285016152fc565b6060830152506102e061555e848285016154ae565b6080830152506103006155738482850161521f565b60a083015250610320615588848285016154ae565b60c08301525061034061559d848285016152fc565b60e0830152506103606155b2848285016152fc565b610100830152506103806155c8848285016152fc565b610120830152506103a06155de848285016152fc565b6101408301525092915050565b60006103c0828403121561560257615601613eca565b5b6000615610848285016154d8565b91505092915050565b600061562482613f8f565b915061562f83613f8f565b92508282039050818111156156475761564661513e565b5b92915050565b600061565882613f8f565b915061566383613f8f565b925082820190508082111561567b5761567a61513e565b5b92915050565b6000819050919050565b6000819050919050565b6156a66156a182615681565b61568b565b82525050565b6000819050919050565b6156c76156c282613f8f565b6156ac565b82525050565b60006156d98285615695565b6020820191506156e982846156b6565b6020820191508190509392505050565b7f4e487b7100000000000000000000000000000000000000000000000000000000600052601260045260246000fd5b600061573382613f8f565b915061573e83613f8f565b92508261574e5761574d6156f9565b5b828206905092915050565b600061576482613f8f565b91507fffffffffffffffffffffffffffffffffffffffffffffffffffffffffffffffff82036157965761579561513e565b5b600182019050919050565b7f4e487b7100000000000000000000000000000000000000000000000000000000600052603260045260246000fd5b6000815190506157df81614140565b92915050565b6000602082840312156157fb576157fa613eca565b5b6000615809848285016157d0565b91505092915050565b60006040820190506158276000830185614116565b6158346020830184614116565b9392505050565b60006020828403121561585157615850613eca565b5b600061585f848285016154ae565b91505092915050565b6000615873826142af565b915061587e836142af565b9250828201905060ff8111156158975761589661513e565b5b92915050565b6158a6816142af565b82525050565b60006060820190506158c160008301866151a5565b6158ce602083018561589d565b6158db6040830184614ff3565b949350505050565b60006103e0820190506158f96000830185614f0b565b6159076103c083018461589d565b9392505050565b60006020828403121561592457615923613eca565b5b6000615932848285016152fc565b91505092915050565b600067ffffffffffffffff821115615956576159556148fc565b5b602082029050602081019050919050565b600067ffffffffffffffff821115615982576159816148fc565b5b61598b8261404b565b9050602081019050919050565b60006159ab6159a684615967565b61495c565b9050828152602081018484840111156159c7576159c66148f7565b5b6159d2848285614021565b509392505050565b600082601f8301126159ef576159ee614607565b5b81516159ff848260208601615998565b91505092915050565b6000615a1b615a168461593b565b61495c565b90508083825260208201905060208402830185811115615a3e57615a3d614611565b5b835b81811015615a8557805167ffffffffffffffff811115615a6357615a62614607565b5b808601615a7089826159da565b85526020850194505050602081019050615a40565b5050509392505050565b600082601f830112615aa457615aa3614607565b5b8151615ab4848260208601615a08565b91505092915050565b600067ffffffffffffffff821115615ad857615ad76148fc565b5b602082029050602081019050919050565b6000615afc615af784615abd565b61495c565b90508083825260208201905060208402830185811115615b1f57615b1e614611565b5b835b81811015615b485780615b3488826154c3565b845260208401935050602081019050615b21565b5050509392505050565b600082601f830112615b6757615b66614607565b5b8151615b77848260208601615ae9565b91505092915050565b60008060408385031215615b9757615b96613eca565b5b600083015167ffffffffffffffff811115615bb557615bb4613ecf565b5b615bc185828601615a8f565b925050602083015167ffffffffffffffff811115615be257615be1613ecf565b5b615bee85828601615b52565b9150509250929050565b600060208284031215615c0e57615c0d613eca565b5b600082015167ffffffffffffffff811115615c2c57615c2b613ecf565b5b615c38848285016159da565b91505092915050565b600080fd5b600080fd5b60008085851115615c5f57615c5e615c41565b5b83861115615c7057615c6f615c46565b5b6020850283019150848603905094509492505050565b600081905092915050565b600080fd5b82818337505050565b6000615cab8385615c86565b93507f07ffffffffffffffffffffffffffffffffffffffffffffffffffffffffffffff831115615cde57615cdd615c91565b5b602083029250615cef838584615c96565b82840190509392505050565b6000615d08828486615c9f565b91508190509392505050565b600067ffffffffffffffff821115615d2f57615d2e6148fc565b5b602082029050919050565b6000615d4d615d4884615d14565b61495c565b90508060208402830185811115615d6757615d66614611565b5b835b81811015615d905780615d7c88826152fc565b845260208401935050602081019050615d69565b5050509392505050565b600082601f830112615daf57615dae614607565b5b6008615dbc848285615d3a565b91505092915050565b60006101008284031215615ddc57615ddb613eca565b5b6000615dea84828501615d9a565b91505092915050565b6000615dfe82613f8f565b9150615e0983613f8f565b925082615e1957615e186156f9565b5b828204905092915050565b6000615e3082856156b6565b602082019150615e4082846156b6565b6020820191508190509392505050565b6000615e5c82846156b6565b60208201915081905092915050565b600081519050919050565b600082825260208201905092915050565b6000615e9282615e6b565b615e9c8185615e76565b9350615eac818560208601614021565b615eb58161404b565b840191505092915050565b6000608082019050615ed56000830187614116565b615ee26020830186614116565b615eef60408301856141ac565b8181036060830152615f018184615e87565b905095945050505050565b600081519050615f1b81613f00565b92915050565b600060208284031215615f3757615f36613eca565b5b6000615f4584828501615f0c565b9150509291505056fea26469706673582212200f91e1f712e71ea3f2a5500ca7aeca4392440726a233ae374d75721d1f8abd0d64736f6c634300081c0033",
  "linkReferences": {
    "contracts/libraries/ArrowsArt.sol": {
      "ArrowsArt": [
        {
          "length": 20,
          "start": 2891
        },
        {
          "length": 20,
          "start": 3545
        },
        {
          "length": 20,
          "start": 4639
        },
        {
          "length": 20,
          "start": 4665
        },
        {
          "length": 20,
          "start": 8155
        },
        {
          "length": 20,
          "start": 8548
        },
        {
          "length": 20,
          "start": 8687
        },
        {
          "length": 20,
          "start": 8949
        },
        {
          "length": 20,
          "start": 8975
        },
        {
          "length": 20,
          "start": 12901
        },
        {
          "length": 20,
          "start": 13341
        },
        {
          "length": 20,
          "start": 13469
        }
      ]
    },
    "contracts/libraries/ArrowsMetadata.sol": {
      "ArrowsMetadata": [
        {
          "length": 20,
          "start": 9220
        }
      ]
    }
  },
  "deployedLinkReferences": {
    "contracts/libraries/ArrowsArt.sol": {
      "ArrowsArt": [
        {
          "length": 20,
          "start": 1782
        },
        {
          "length": 20,
          "start": 2436
        },
        {
          "length": 20,
          "start": 3530
        },
        {
          "length": 20,
          "start": 3556
        },
        {
          "length": 20,
          "start": 7046
        },
        {
          "length": 20,
          "start": 7439
        },
        {
          "length": 20,
          "start": 7578
        },
        {
          "length": 20,
          "start": 7840
        },
        {
          "length": 20,
          "start": 7866
        },
        {
          "length": 20,
          "start": 11792
        },
        {
          "length": 20,
          "start": 12232
        },
        {
          "length": 20,
          "start": 12360
        }
      ]
    },
    "contracts/libraries/ArrowsMetadata.sol": {
      "ArrowsMetadata": [
        {
          "length": 20,
          "start": 8111
        }
      ]
    }
  }
}