{
  "_format": "hh-sol-artifact-1",
  "contractName": "EightyColors",
  "sourceName": "contracts/libraries/EightyColors.sol",
  "abi": [
    {
      "inputs": [],
      "name": "COLORS",
      "outputs": [
        {
          "internalType": "string[80]",
          "name": "",
          "type": "string[80]"
        }
      ],
      "stateMutability": "pure",
      "type": "function"
    }
  ],
  "bytecode": "0x6114a5610052600b82828239805160001a6073146045577f4e487b7100000000000000000000000000000000000000000000000000000000600052600060045260246000fd5b30600052607381538281f3fe73000000000000000000000000000000000000000030146080604052600436106100355760003560e01c80635022b5e91461003a575b600080fd5b610042610058565b60405161004f919061144d565b60405180910390f35b6100606112df565b60405180610a0001604052806040518060400160405280600681526020017f453834414139000000000000000000000000000000000000000000000000000081525081526020016040518060400160405280600681526020017f463233393944000000000000000000000000000000000000000000000000000081525081526020016040518060400160405280600681526020017f444232463936000000000000000000000000000000000000000000000000000081525081526020016040518060400160405280600681526020017f453733453835000000000000000000000000000000000000000000000000000081525081526020016040518060400160405280600681526020017f464637463845000000000000000000000000000000000000000000000000000081525081526020016040518060400160405280600681526020017f464135423637000000000000000000000000000000000000000000000000000081525081526020016040518060400160405280600681526020017f453834323445000000000000000000000000000000000000000000000000000081525081526020016040518060400160405280600681526020017f443533333246000000000000000000000000000000000000000000000000000081525081526020016040518060400160405280600681526020017f433233353332000000000000000000000000000000000000000000000000000081525081526020016040518060400160405280600681526020017f463232383143000000000000000000000000000000000000000000000000000081525081526020016040518060400160405280600681526020017f443431353135000000000000000000000000000000000000000000000000000081525081526020016040518060400160405280600681526020017f394432363246000000000000000000000000000000000000000000000000000081525081526020016040518060400160405280600681526020017f444533323337000000000000000000000000000000000000000000000000000081525081526020016040518060400160405280600681526020017f444133333231000000000000000000000000000000000000000000000000000081525081526020016040518060400160405280600681526020017f454133413244000000000000000000000000000000000000000000000000000081525081526020016040518060400160405280600681526020017f454234343239000000000000000000000000000000000000000000000000000081525081526020016040518060400160405280600681526020017f454337333638000000000000000000000000000000000000000000000000000081525081526020016040518060400160405280600681526020017f464638303739000000000000000000000000000000000000000000000000000081525081526020016040518060400160405280600681526020017f464639313933000000000000000000000000000000000000000000000000000081525081526020016040518060400160405280600681526020017f454135423333000000000000000000000000000000000000000000000000000081525081526020016040518060400160405280600681526020017f443035433335000000000000000000000000000000000000000000000000000081525081526020016040518060400160405280600681526020017f454437433330000000000000000000000000000000000000000000000000000081525081526020016040518060400160405280600681526020017f454639393333000000000000000000000000000000000000000000000000000081525081526020016040518060400160405280600681526020017f454638433337000000000000000000000000000000000000000000000000000081525081526020016040518060400160405280600681526020017f463138393330000000000000000000000000000000000000000000000000000081525081526020016040518060400160405280600681526020017f463039383337000000000000000000000000000000000000000000000000000081525081526020016040518060400160405280600681526020017f463941343543000000000000000000000000000000000000000000000000000081525081526020016040518060400160405280600681526020017f463241343341000000000000000000000000000000000000000000000000000081525081526020016040518060400160405280600681526020017f463241383430000000000000000000000000000000000000000000000000000081525081526020016040518060400160405280600681526020017f463241393343000000000000000000000000000000000000000000000000000081525081526020016040518060400160405280600681526020017f464642333430000000000000000000000000000000000000000000000000000081525081526020016040518060400160405280600681526020017f463242333431000000000000000000000000000000000000000000000000000081525081526020016040518060400160405280600681526020017f464144303634000000000000000000000000000000000000000000000000000081525081526020016040518060400160405280600681526020017f463743413537000000000000000000000000000000000000000000000000000081525081526020016040518060400160405280600681526020017f463643423435000000000000000000000000000000000000000000000000000081525081526020016040518060400160405280600681526020017f464641423030000000000000000000000000000000000000000000000000000081525081526020016040518060400160405280600681526020017f463443343441000000000000000000000000000000000000000000000000000081525081526020016040518060400160405280600681526020017f464344453542000000000000000000000000000000000000000000000000000081525081526020016040518060400160405280600681526020017f463944413444000000000000000000000000000000000000000000000000000081525081526020016040518060400160405280600681526020017f463944413441000000000000000000000000000000000000000000000000000081525081526020016040518060400160405280600681526020017f464145323732000000000000000000000000000000000000000000000000000081525081526020016040518060400160405280600681526020017f463944423439000000000000000000000000000000000000000000000000000081525081526020016040518060400160405280600681526020017f464145363633000000000000000000000000000000000000000000000000000081525081526020016040518060400160405280600681526020017f464245413542000000000000000000000000000000000000000000000000000081525081526020016040518060400160405280600681526020017f413743413435000000000000000000000000000000000000000000000000000081525081526020016040518060400160405280600681526020017f423546313342000000000000000000000000000000000000000000000000000081525081526020016040518060400160405280600681526020017f393445333337000000000000000000000000000000000000000000000000000081525081526020016040518060400160405280600681526020017f363343323343000000000000000000000000000000000000000000000000000081525081526020016040518060400160405280600681526020017f383645343845000000000000000000000000000000000000000000000000000081525081526020016040518060400160405280600681526020017f373745333946000000000000000000000000000000000000000000000000000081525081526020016040518060400160405280600681526020017f354643443843000000000000000000000000000000000000000000000000000081525081526020016040518060400160405280600681526020017f383346314145000000000000000000000000000000000000000000000000000081525081526020016040518060400160405280600681526020017f394445464246000000000000000000000000000000000000000000000000000081525081526020016040518060400160405280600681526020017f324539443941000000000000000000000000000000000000000000000000000081525081526020016040518060400160405280600681526020017f334542384131000000000000000000000000000000000000000000000000000081525081526020016040518060400160405280600681526020017f354643394246000000000000000000000000000000000000000000000000000081525081526020016040518060400160405280600681526020017f373744334445000000000000000000000000000000000000000000000000000081525081526020016040518060400160405280600681526020017f364144314445000000000000000000000000000000000000000000000000000081525081526020016040518060400160405280600681526020017f354142414433000000000000000000000000000000000000000000000000000081525081526020016040518060400160405280600681526020017f343239314138000000000000000000000000000000000000000000000000000081525081526020016040518060400160405280600681526020017f333337353844000000000000000000000000000000000000000000000000000081525081526020016040518060400160405280600681526020017f343542324433000000000000000000000000000000000000000000000000000081525081526020016040518060400160405280600681526020017f383144314543000000000000000000000000000000000000000000000000000081525081526020016040518060400160405280600681526020017f413744444639000000000000000000000000000000000000000000000000000081525081526020016040518060400160405280600681526020017f394144394642000000000000000000000000000000000000000000000000000081525081526020016040518060400160405280600681526020017f413443384545000000000000000000000000000000000000000000000000000081525081526020016040518060400160405280600681526020017f363042314634000000000000000000000000000000000000000000000000000081525081526020016040518060400160405280600681526020017f323438304244000000000000000000000000000000000000000000000000000081525081526020016040518060400160405280600681526020017f343537364430000000000000000000000000000000000000000000000000000081525081526020016040518060400160405280600681526020017f333236334430000000000000000000000000000000000000000000000000000081525081526020016040518060400160405280600681526020017f324534393835000000000000000000000000000000000000000000000000000081525081526020016040518060400160405280600681526020017f323534333843000000000000000000000000000000000000000000000000000081525081526020016040518060400160405280600681526020017f353235454141000000000000000000000000000000000000000000000000000081525081526020016040518060400160405280600681526020017f334434334233000000000000000000000000000000000000000000000000000081525081526020016040518060400160405280600681526020017f333232463932000000000000000000000000000000000000000000000000000081525081526020016040518060400160405280600681526020017f344132333837000000000000000000000000000000000000000000000000000081525081526020016040518060400160405280600681526020017f333731343731000000000000000000000000000000000000000000000000000081525081526020016040518060400160405280600681526020017f334230383843000000000000000000000000000000000000000000000000000081525081526020016040518060400160405280600681526020017f364333314437000000000000000000000000000000000000000000000000000081525081526020016040518060400160405280600681526020017f3937343144410000000000000000000000000000000000000000000000000000815250815250905090565b60405180610a0001604052806050905b60608152602001906001900390816112ef5790505090565b600060509050919050565b600081905092915050565b6000819050919050565b600081519050919050565b600082825260208201905092915050565b60005b83811015611361578082015181840152602081019050611346565b60008484015250505050565b6000601f19601f8301169050919050565b600061138982611327565b6113938185611332565b93506113a3818560208601611343565b6113ac8161136d565b840191505092915050565b60006113c3838361137e565b905092915050565b6000602082019050919050565b60006113e382611307565b6113ed8185611312565b9350836020820285016113ff8561131d565b8060005b8581101561143b578484038952815161141c85826113b7565b9450611427836113cb565b925060208a01995050600181019050611403565b50829750879550505050505092915050565b6000602082019050818103600083015261146781846113d8565b90509291505056fea264697066735822122016e544e0e939b865d8c01cf9a14952d8e05b566ea5fef596ef16c1dce62f89b264736f6c634300081c0033",
  "linkReferences": {},
  "deployedLinkReferences": {}
}