{
  "_format": "hh-sol-artifact-1",
  "contractName": "ArrowsArt",
  "sourceName": "contracts/libraries/ArrowsArt.sol",
  "abi": [
    {
      "inputs": [],
      "name": "ARROWS_PATH",
      "outputs": [
        {
          "internalType": "string",
          "name": "",
          "type": "string"
        }
      ],
      "stateMutability": "view",
      "type": "function"
    },
    {
      "inputs": [],
      "name": "ARROW_SYMBOL",
      "outputs": [
        {
          "internalType": "string",
          "name": "",
          "type": "string"
        }
      ],
      "stateMutability": "view",
      "type": "function"
    },
    {
      "inputs": [],
      "name": "COLOR_BANDS",
      "outputs": [
        {
          "internalType": "uint8[7]",
          "name": "",
          "type": "uint8[7]"
        }
      ],
      "stateMutability": "pure",
      "type": "function"
    },
    {
      "inputs": [],
      "name": "DIVISORS",
      "outputs": [
        {
          "internalType": "uint8[8]",
          "name": "",
          "type": "uint8[8]"
        }
      ],
      "stateMutability": "pure",
      "type": "function"
    },
    {
      "inputs": [],
      "name": "GRADIENTS",
      "outputs": [
        {
          "internalType": "uint8[7]",
          "name": "",
          "type": "uint8[7]"
        }
      ],
      "stateMutability": "pure",
      "type": "function"
    },
    {
      "inputs": [
        {
          "components": [
            {
              "components": [
                {
                  "internalType": "uint16[6]",
                  "name": "composites",
                  "type": "uint16[6]"
                },
                {
                  "internalType": "uint8[5]",
                  "name": "colorBands",
                  "type": "uint8[5]"
                },
                {
                  "internalType": "uint8[5]",
                  "name": "gradients",
                  "type": "uint8[5]"
                },
                {
                  "internalType": "uint8",
                  "name": "divisorIndex",
                  "type": "uint8"
                },
                {
                  "internalType": "uint32",
                  "name": "epoch",
                  "type": "uint32"
                },
                {
                  "internalType": "uint16",
                  "name": "seed",
                  "type": "uint16"
                },
                {
                  "internalType": "uint24",
                  "name": "day",
                  "type": "uint24"
                }
              ],
              "internalType": "struct IArrows.StoredArrow",
              "name": "stored",
              "type": "tuple"
            },
            {
              "internalType": "bool",
              "name": "isRevealed",
              "type": "bool"
            },
            {
              "internalType": "uint256",
              "name": "seed",
              "type": "uint256"
            },
            {
              "internalType": "uint8",
              "name": "arrowsCount",
              "type": "uint8"
            },
            {
              "internalType": "bool",
              "name": "hasManyArrows",
              "type": "bool"
            },
            {
              "internalType": "uint16",
              "name": "composite",
              "type": "uint16"
            },
            {
              "internalType": "bool",
              "name": "isRoot",
              "type": "bool"
            },
            {
              "internalType": "uint8",
              "name": "colorBand",
              "type": "uint8"
            },
            {
              "internalType": "uint8",
              "name": "gradient",
              "type": "uint8"
            },
            {
              "internalType": "uint8",
              "name": "direction",
              "type": "uint8"
            },
            {
              "internalType": "uint8",
              "name": "speed",
              "type": "uint8"
            }
          ],
          "internalType": "struct IArrows.Arrow",
          "name": "arrow",
          "type": "tuple"
        },
        {
          "internalType": "uint8",
          "name": "divisorIndex",
          "type": "uint8"
        }
      ],
      "name": "colorBandIndex",
      "outputs": [
        {
          "internalType": "uint8",
          "name": "",
          "type": "uint8"
        }
      ],
      "stateMutability": "pure",
      "type": "function"
    },
    {
      "inputs": [
        {
          "components": [
            {
              "components": [
                {
                  "components": [
                    {
                      "internalType": "uint16[6]",
                      "name": "composites",
                      "type": "uint16[6]"
                    },
                    {
                      "internalType": "uint8[5]",
                      "name": "colorBands",
                      "type": "uint8[5]"
                    },
                    {
                      "internalType": "uint8[5]",
                      "name": "gradients",
                      "type": "uint8[5]"
                    },
                    {
                      "internalType": "uint8",
                      "name": "divisorIndex",
                      "type": "uint8"
                    },
                    {
                      "internalType": "uint32",
                      "name": "epoch",
                      "type": "uint32"
                    },
                    {
                      "internalType": "uint16",
                      "name": "seed",
                      "type": "uint16"
                    },
                    {
                      "internalType": "uint24",
                      "name": "day",
                      "type": "uint24"
                    }
                  ],
                  "internalType": "struct IArrows.StoredArrow",
                  "name": "stored",
                  "type": "tuple"
                },
                {
                  "internalType": "bool",
                  "name": "isRevealed",
                  "type": "bool"
                },
                {
                  "internalType": "uint256",
                  "name": "seed",
                  "type": "uint256"
                },
                {
                  "internalType": "uint8",
                  "name": "arrowsCount",
                  "type": "uint8"
                },
                {
                  "internalType": "bool",
                  "name": "hasManyArrows",
                  "type": "bool"
                },
                {
                  "internalType": "uint16",
                  "name": "composite",
                  "type": "uint16"
                },
                {
                  "internalType": "bool",
                  "name": "isRoot",
                  "type": "bool"
                },
                {
                  "internalType": "uint8",
                  "name": "colorBand",
                  "type": "uint8"
                },
                {
                  "internalType": "uint8",
                  "name": "gradient",
                  "type": "uint8"
                },
                {
                  "internalType": "uint8",
                  "name": "direction",
                  "type": "uint8"
                },
                {
                  "internalType": "uint8",
                  "name": "speed",
                  "type": "uint8"
                }
              ],
              "internalType": "struct IArrows.Arrow",
              "name": "arrow",
              "type": "tuple"
            },
            {
              "internalType": "uint256[]",
              "name": "colorIndexes",
              "type": "uint256[]"
            },
            {
              "internalType": "string[]",
              "name": "colors",
              "type": "string[]"
            },
            {
              "internalType": "string",
              "name": "canvasColor",
              "type": "string"
            },
            {
              "internalType": "string",
              "name": "gridColor",
              "type": "string"
            },
            {
              "internalType": "string",
              "name": "duration",
              "type": "string"
            },
            {
              "internalType": "string",
              "name": "scale",
              "type": "string"
            },
            {
              "internalType": "uint32",
              "name": "seed",
              "type": "uint32"
            },
            {
              "internalType": "uint16",
              "name": "rowX",
              "type": "uint16"
            },
            {
              "internalType": "uint16",
              "name": "rowY",
              "type": "uint16"
            },
            {
              "internalType": "uint8",
              "name": "count",
              "type": "uint8"
            },
            {
              "internalType": "uint8",
              "name": "spaceX",
              "type": "uint8"
            },
            {
              "internalType": "uint8",
              "name": "spaceY",
              "type": "uint8"
            },
            {
              "internalType": "uint8",
              "name": "perRow",
              "type": "uint8"
            },
            {
              "internalType": "uint8",
              "name": "indexInRow",
              "type": "uint8"
            },
            {
              "internalType": "uint8",
              "name": "isIndented",
              "type": "uint8"
            },
            {
              "internalType": "bool",
              "name": "isNewRow",
              "type": "bool"
            },
            {
              "internalType": "bool",
              "name": "isBlack",
              "type": "bool"
            },
            {
              "internalType": "bool",
              "name": "indent",
              "type": "bool"
            }
          ],
          "internalType": "struct ArrowRenderData",
          "name": "data",
          "type": "tuple"
        },
        {
          "internalType": "uint256",
          "name": "offset",
          "type": "uint256"
        },
        {
          "internalType": "string[80]",
          "name": "allColors",
          "type": "string[80]"
        }
      ],
      "name": "fillAnimation",
      "outputs": [
        {
          "internalType": "bytes",
          "name": "",
          "type": "bytes"
        }
      ],
      "stateMutability": "pure",
      "type": "function"
    },
    {
      "inputs": [
        {
          "components": [
            {
              "components": [
                {
                  "components": [
                    {
                      "internalType": "uint16[6]",
                      "name": "composites",
                      "type": "uint16[6]"
                    },
                    {
                      "internalType": "uint8[5]",
                      "name": "colorBands",
                      "type": "uint8[5]"
                    },
                    {
                      "internalType": "uint8[5]",
                      "name": "gradients",
                      "type": "uint8[5]"
                    },
                    {
                      "internalType": "uint8",
                      "name": "divisorIndex",
                      "type": "uint8"
                    },
                    {
                      "internalType": "uint32",
                      "name": "epoch",
                      "type": "uint32"
                    },
                    {
                      "internalType": "uint16",
                      "name": "seed",
                      "type": "uint16"
                    },
                    {
                      "internalType": "uint24",
                      "name": "day",
                      "type": "uint24"
                    }
                  ],
                  "internalType": "struct IArrows.StoredArrow",
                  "name": "stored",
                  "type": "tuple"
                },
                {
                  "internalType": "bool",
                  "name": "isRevealed",
                  "type": "bool"
                },
                {
                  "internalType": "uint256",
                  "name": "seed",
                  "type": "uint256"
                },
                {
                  "internalType": "uint8",
                  "name": "arrowsCount",
                  "type": "uint8"
                },
                {
                  "internalType": "bool",
                  "name": "hasManyArrows",
                  "type": "bool"
                },
                {
                  "internalType": "uint16",
                  "name": "composite",
                  "type": "uint16"
                },
                {
                  "internalType": "bool",
                  "name": "isRoot",
                  "type": "bool"
                },
                {
                  "internalType": "uint8",
                  "name": "colorBand",
                  "type": "uint8"
                },
                {
                  "internalType": "uint8",
                  "name": "gradient",
                  "type": "uint8"
                },
                {
                  "internalType": "uint8",
                  "name": "direction",
                  "type": "uint8"
                },
                {
                  "internalType": "uint8",
                  "name": "speed",
                  "type": "uint8"
                }
              ],
              "internalType": "struct IArrows.Arrow",
              "name": "arrow",
              "type": "tuple"
            },
            {
              "internalType": "uint256[]",
              "name": "colorIndexes",
              "type": "uint256[]"
            },
            {
              "internalType": "string[]",
              "name": "colors",
              "type": "string[]"
            },
            {
              "internalType": "string",
              "name": "canvasColor",
              "type": "string"
            },
            {
              "internalType": "string",
              "name": "gridColor",
              "type": "string"
            },
            {
              "internalType": "string",
              "name": "duration",
              "type": "string"
            },
            {
              "internalType": "string",
              "name": "scale",
              "type": "string"
            },
            {
              "internalType": "uint32",
              "name": "seed",
              "type": "uint32"
            },
            {
              "internalType": "uint16",
              "name": "rowX",
              "type": "uint16"
            },
            {
              "internalType": "uint16",
              "name": "rowY",
              "type": "uint16"
            },
            {
              "internalType": "uint8",
              "name": "count",
              "type": "uint8"
            },
            {
              "internalType": "uint8",
              "name": "spaceX",
              "type": "uint8"
            },
            {
              "internalType": "uint8",
              "name": "spaceY",
              "type": "uint8"
            },
            {
              "internalType": "uint8",
              "name": "perRow",
              "type": "uint8"
            },
            {
              "internalType": "uint8",
              "name": "indexInRow",
              "type": "uint8"
            },
            {
              "internalType": "uint8",
              "name": "isIndented",
              "type": "uint8"
            },
            {
              "internalType": "bool",
              "name": "isNewRow",
              "type": "bool"
            },
            {
              "internalType": "bool",
              "name": "isBlack",
              "type": "bool"
            },
            {
              "internalType": "bool",
              "name": "indent",
              "type": "bool"
            }
          ],
          "internalType": "struct ArrowRenderData",
          "name": "data",
          "type": "tuple"
        }
      ],
      "name": "generateArrows",
      "outputs": [
        {
          "internalType": "bytes",
          "name": "",
          "type": "bytes"
        }
      ],
      "stateMutability": "pure",
      "type": "function"
    },
    {
      "inputs": [],
      "name": "generateGrid",
      "outputs": [
        {
          "internalType": "bytes",
          "name": "",
          "type": "bytes"
        }
      ],
      "stateMutability": "pure",
      "type": "function"
    },
    {
      "inputs": [],
      "name": "generateGridRow",
      "outputs": [
        {
          "internalType": "bytes",
          "name": "",
          "type": "bytes"
        }
      ],
      "stateMutability": "pure",
      "type": "function"
    },
    {
      "inputs": [
        {
          "components": [
            {
              "components": [
                {
                  "internalType": "uint16[6]",
                  "name": "composites",
                  "type": "uint16[6]"
                },
                {
                  "internalType": "uint8[5]",
                  "name": "colorBands",
                  "type": "uint8[5]"
                },
                {
                  "internalType": "uint8[5]",
                  "name": "gradients",
                  "type": "uint8[5]"
                },
                {
                  "internalType": "uint8",
                  "name": "divisorIndex",
                  "type": "uint8"
                },
                {
                  "internalType": "uint32",
                  "name": "epoch",
                  "type": "uint32"
                },
                {
                  "internalType": "uint16",
                  "name": "seed",
                  "type": "uint16"
                },
                {
                  "internalType": "uint24",
                  "name": "day",
                  "type": "uint24"
                }
              ],
              "internalType": "struct IArrows.StoredArrow",
              "name": "stored",
              "type": "tuple"
            },
            {
              "internalType": "bool",
              "name": "isRevealed",
              "type": "bool"
            },
            {
              "internalType": "uint256",
              "name": "seed",
              "type": "uint256"
            },
            {
              "internalType": "uint8",
              "name": "arrowsCount",
              "type": "uint8"
            },
            {
              "internalType": "bool",
              "name": "hasManyArrows",
              "type": "bool"
            },
            {
              "internalType": "uint16",
              "name": "composite",
              "type": "uint16"
            },
            {
              "internalType": "bool",
              "name": "isRoot",
              "type": "bool"
            },
            {
              "internalType": "uint8",
              "name": "colorBand",
              "type": "uint8"
            },
            {
              "internalType": "uint8",
              "name": "gradient",
              "type": "uint8"
            },
            {
              "internalType": "uint8",
              "name": "direction",
              "type": "uint8"
            },
            {
              "internalType": "uint8",
              "name": "speed",
              "type": "uint8"
            }
          ],
          "internalType": "struct IArrows.Arrow",
          "name": "arrow",
          "type": "tuple"
        },
        {
          "internalType": "uint8",
          "name": "divisorIndex",
          "type": "uint8"
        }
      ],
      "name": "gradientIndex",
      "outputs": [
        {
          "internalType": "uint8",
          "name": "",
          "type": "uint8"
        }
      ],
      "stateMutability": "pure",
      "type": "function"
    },
    {
      "inputs": [
        {
          "internalType": "uint8",
          "name": "arrows",
          "type": "uint8"
        }
      ],
      "name": "perRow",
      "outputs": [
        {
          "internalType": "uint8",
          "name": "",
          "type": "uint8"
        }
      ],
      "stateMutability": "pure",
      "type": "function"
    },
    {
      "inputs": [
        {
          "internalType": "uint8",
          "name": "arrows",
          "type": "uint8"
        }
      ],
      "name": "rowX",
      "outputs": [
        {
          "internalType": "uint16",
          "name": "",
          "type": "uint16"
        }
      ],
      "stateMutability": "pure",
      "type": "function"
    },
    {
      "inputs": [
        {
          "internalType": "uint8",
          "name": "arrows",
          "type": "uint8"
        }
      ],
      "name": "rowY",
      "outputs": [
        {
          "internalType": "uint16",
          "name": "",
          "type": "uint16"
        }
      ],
      "stateMutability": "pure",
      "type": "function"
    }
  ],
  "bytecode": "0x615e55610052600b82828239805160001a6073146045577f4e487b7100000000000000000000000000000000000000000000000000000000600052600060045260246000fd5b30600052607381538281f3fe73000000000000000000000000000000000000000030146080604052600436106101365760003560e01c80638b783628116100b7578063deac370e1161007b578063deac370e146103a0578063e66c3474146103d0578063e8f83cf814610400578063f004743d1461041e578063fbfc36b61461044e57610136565b80638b783628146102d3578063911508ff1461030357806392a18ab914610333578063abd8033014610351578063c9eb2f881461036f57610136565b8063400650cb116100fe578063400650cb1461021957806348fb0f871461023757806353bfca20146102555780636c85208f146102735780638b59fdad146102a357610136565b80630c14f3e91461013b57806324b664c11461016b5780632fba26d31461019b57806331f32907146101b9578063324d06df146101e9575b600080fd5b61015560048036038101906101509190612bd2565b61047e565b6040516101629190612c23565b60405180910390f35b61018560048036038101906101809190612c74565b61054d565b6040516101929190613375565b60405180910390f35b6101a36108ac565b6040516101b0919061341b565b60405180910390f35b6101d360048036038101906101ce91906138fa565b610908565b6040516101e09190613998565b60405180910390f35b61020360048036038101906101fe91906139ba565b610c97565b6040516102109190613a7e565b60405180910390f35b610221611243565b60405161022e9190613998565b60405180910390f35b61023f6112ab565b60405161024c9190613998565b60405180910390f35b61025d611326565b60405161026a9190613b24565b60405180910390f35b61028d60048036038101906102889190613c0f565b61138d565b60405161029a9190613998565b60405180910390f35b6102bd60048036038101906102b89190612bd2565b61151e565b6040516102ca9190612c23565b60405180910390f35b6102ed60048036038101906102e89190613c9a565b611626565b6040516102fa9190613cd6565b60405180910390f35b61031d60048036038101906103189190613c9a565b61167c565b60405161032a9190612c23565b60405180910390f35b61033b6116cf565b6040516103489190613d3b565b60405180910390f35b610359611708565b6040516103669190613d3b565b60405180910390f35b61038960048036038101906103849190612c74565b611727565b604051610397929190613de3565b60405180910390f35b6103ba60048036038101906103b59190613c9a565b611b42565b6040516103c79190613cd6565b60405180910390f35b6103ea60048036038101906103e59190612c74565b611b89565b6040516103f79190613998565b60405180910390f35b610408611be8565b604051610415919061341b565b60405180910390f35b61043860048036038101906104339190613e1a565b611c44565b6040516104459190613f42565b60405180910390f35b61046860048036038101906104639190613f5e565b611e51565b6040516104759190613f42565b60405180910390f35b6000806104c684604001516040518060400160405280600881526020017f6772616469656e74000000000000000000000000000000000000000000000000815250606461226f565b905060008360ff161461051a5760068360ff16106104e5576000610515565b8360000151604001516001846104fb9190613fe0565b60ff166005811061050f5761050e614015565b5b60200201515b610544565b60148110610529576000610543565b6006816105369190614073565b600161054291906140a4565b5b5b91505092915050565b610555612476565b828160000181905250600783600001516060015160ff1614816102200190151590811515815250508061022001516105b65761058f611326565b83600001516060015160ff16600881106105ac576105ab614015565b5b60200201516105b9565b60015b81610140019060ff16908160ff16815250506000806105d88585611727565b91509150826102200151610621576040518060400160405280600781526020017f2331393139313900000000000000000000000000000000000000000000000000815250610658565b6040518060400160405280600781526020017f23463246324632000000000000000000000000000000000000000000000000008152505b83608001819052508261022001516106a5576040518060400160405280600481526020017f23313131000000000000000000000000000000000000000000000000000000008152506106dc565b6040518060400160405280600481526020017f23464646000000000000000000000000000000000000000000000000000000008152505b8360600181905250808360200181905250818360400181905250601483610140015160ff161161078d57600183610140015160ff1611610751576040518060400160405280600181526020017f3300000000000000000000000000000000000000000000000000000000000000815250610788565b6040518060400160405280600181526020017f32000000000000000000000000000000000000000000000000000000000000008152505b6107c4565b6040518060400160405280600181526020017f31000000000000000000000000000000000000000000000000000000000000008152505b8360c00181905250605083610140015160ff16146107e35760486107e6565b60245b83610160019060ff16908160ff1681525050601483610140015160ff161161080f576048610812565b60245b83610180019060ff16908160ff168152505061083283610140015161167c565b836101a0019060ff16908160ff1681525050602883610140015160ff16148361024001901515908115158152505061086e836101400151611626565b83610100019061ffff16908161ffff1681525050610890836101400151611b42565b83610120019061ffff16908161ffff1681525050505092915050565b6108b4612534565b6040518060e00160405280605060ff168152602001603c60ff168152602001602860ff168152602001601460ff168152602001600a60ff168152602001600560ff168152602001600160ff16815250905090565b606080600073__$533982e194a1e1b2fdbc6dbe93e4ad861f$__635022b5e96040518163ffffffff1660e01b8152600401600060405180830381865af4158015610956573d6000803e3d6000fd5b505050506040513d6000823e3d601f19601f8201168201806040525081019061097f91906141f1565b90506000846101400151905060005b8160ff168160ff161015610c8b57856101a00151816109ad919061423a565b866101c0019060ff16908160ff16815250506000866101c0015160ff161480156109da575060008160ff16115b8661020001901515908115158152505085610200015115610a225785610180015160ff168661012001818151610a10919061426b565b91509061ffff16908161ffff16815250505b8561020001518015610a3657508561024001515b15610b1d5760008160ff1603610a7f576002866101600151610a5891906142a1565b60ff168661010001818151610a6d919061426b565b91509061ffff16908161ffff16815250505b60006002876101a00151610a9391906142d2565b82610a9e919061423a565b60ff1603610ae3576002866101600151610ab891906142a1565b60ff168661010001818151610acd919061430f565b91509061ffff16908161ffff1681525050610b1c565b6002866101600151610af591906142a1565b60ff168661010001818151610b0a919061426b565b91509061ffff16908161ffff16815250505b5b6000610b54876101600151886101c00151610b3891906142d2565b60ff16886101000151610b4b919061426b565b61ffff166122b1565b90506000610b6a88610120015161ffff166122b1565b90506000886000015160200151610ba0578860400151600081518110610b9357610b92614015565b5b6020026020010151610bc3565b88604001518460ff1681518110610bba57610bb9614015565b5b60200260200101515b905060006040518060200160405280600081525090508960000151602001518015610bf15750896102200151155b15610c2b5760008a602001518660ff1681518110610c1257610c11614015565b5b60200260200101519050610c278b828a61138d565b9150505b8784848c60c001518585604051602001610c4995949392919061496c565b604051602081830303815290604052604051602001610c69929190614a30565b604051602081830303815290604052975050505050808060010191505061098e565b50829350505050919050565b60606000610ca3611326565b90506000818660ff1660088110610cbd57610cbc614015565b5b602002015160ff1690506000856040015190506000610cda6108ac565b610ce4888a61151e565b60ff1660078110610cf857610cf7614015565b5b602002015190506000610d09611be8565b610d13898b61047e565b60ff1660078110610d2757610d26614015565b5b602002015190506000808a60ff1611610d41576050610d75565b60028660018c610d519190613fe0565b60ff1660088110610d6557610d64614015565b5b6020020151610d7491906142d2565b5b60ff16905060008567ffffffffffffffff811115610d9657610d956126c1565b5b604051908082528060200260200182016040528015610dc45781602001602082028036833780820191505090505b509050610dd18583612437565b81600081518110610de557610de4614015565b5b602002602001018181525050896080015115610f945760008360ff161115610eae576000600190505b86811015610ea85760508560ff16888760ff168760ff1685610e309190614a54565b610e3a9190614a54565b610e449190614a96565b610e4e9190614073565b83600081518110610e6257610e61614015565b5b6020026020010151610e7491906140a4565b610e7e9190614073565b828281518110610e9157610e90614015565b5b602002602001018181525050806001019050610e0e565b50610f93565b60008b60ff1603610f42576000600190505b86811015610f3c576050610ee28288610ed991906140a4565b8760ff16612437565b83600081518110610ef657610ef5614015565b5b6020026020010151610f0891906140a4565b610f129190614073565b828281518110610f2557610f24614015565b5b602002602001018181525050806001019050610ec0565b50610f92565b6000600190505b86811015610f9057610f668187610f6091906140a4565b84612437565b828281518110610f7957610f78614015565b5b602002602001018181525050806001019050610f49565b505b5b5b60008b60ff16111561123257600060018c610faf9190613fe0565b90506000610fbe828d8d610c97565b90506000610fd58d60a0015161ffff16848e611e51565b90506000610fe484838f610c97565b905060008b8560ff1660088110610ffe57610ffd614015565b5b6020020151905060008160ff168760008151811061101f5761101e614015565b5b60200260200101516110319190614073565b90508160ff168760008151811061104b5761104a614015565b5b6020026020010151106110785782818151811061106b5761106a614015565b5b6020026020010151611094565b84818151811061108b5761108a614015565b5b60200260200101515b876000815181106110a8576110a7614015565b5b60200260200101818152505060008960ff16036111885760005b8c8110156111825760008360ff168983815181106110e3576110e2614015565b5b60200260200101516110f59190614073565b90508360ff1689838151811061110e5761110d614015565b5b60200260200101511061113b5784818151811061112e5761112d614015565b5b6020026020010151611157565b86818151811061114e5761114d614015565b5b60200260200101515b89838151811061116a57611169614015565b5b602002602001018181525050816001019150506110c2565b5061122b565b6000600190505b8c8110156112295760508b60ff168e8d60ff168d60ff16856111b19190614a54565b6111bb9190614a54565b6111c59190614a96565b6111cf9190614073565b896000815181106111e3576111e2614015565b5b60200260200101516111f591906140a4565b6111ff9190614073565b88828151811061121257611211614015565b5b60200260200101818152505080600101905061118f565b505b5050505050505b809750505050505050509392505050565b60608060005b60088110156112a357816112746024836112639190614a54565b60c461126f91906140a4565b6122b1565b604051602001611285929190614b5f565b60405160208183030381529060405291508080600101915050611249565b508091505090565b60608060005b600a8110156112ff57816112d06024836112cb9190614a54565b6122b1565b6040516020016112e1929190614c31565b604051602081830303815290604052915080806001019150506112b1565b50806040516020016113119190614cb7565b60405160208183030381529060405291505090565b61132e612556565b604051806101000160405280605060ff168152602001602860ff168152602001601460ff168152602001600a60ff168152602001600560ff168152602001600460ff168152602001600160ff168152602001600060ff16815250905090565b6060600060149050606060008660000151610120015160ff160361141d5760006050866113ba91906140a4565b90505b858111156114175781856050836113d49190614073565b605081106113e5576113e4614015565b5b60200201516040516020016113fb929190614d7c565b60405160208183030381529060405291506004810390506113bd565b5061148b565b60008590505b60508661143091906140a4565b8110156114895781856050836114469190614073565b6050811061145757611456614015565b5b602002015160405160200161146d929190614d7c565b6040516020818303038152906040529150600481019050611423565b505b8084866050811061149f5761149e614015565b5b60200201516040516020016114b5929190614db6565b6040516020818303038152906040529050806114f3876000015161014001516002856114e191906142d2565b6114eb91906142a1565b60ff166122b1565b604051602001611504929190614fad565b604051602081830303815290604052925050509392505050565b60008061156684604001516040518060400160405280600481526020017f62616e6400000000000000000000000000000000000000000000000000000000815250607861226f565b905060008360ff16146115ba5760068360ff16106115855760066115b5565b83600001516020015160018461159b9190613fe0565b60ff16600581106115af576115ae614015565b5b60200201515b61161d565b605081116116195760288111611611576014811161160957600a811161160157600481116115f957600181116115f15760066115f4565b60055b6115fc565b60045b611604565b60035b61160c565b60025b611614565b60015b61161c565b60005b5b91505092915050565b600060018260ff1611156116715760058260ff161461166857600a8260ff161480611654575060048260ff16145b61165f5760c4611663565b61010c5b61166c565b6101305b611675565b61011e5b9050919050565b600060508260ff16146116c55760148260ff1610156116bd57600a8260ff1614806116aa575060048260ff16145b6116b55760016116b8565b60025b6116c0565b60045b6116c8565b60085b9050919050565b6040518060400160405280600381526020017fe28697000000000000000000000000000000000000000000000000000000000081525081565b6040518061022001604052806101f08152602001615c306101f0913981565b606080600784600001516060015160ff1603611863576000600167ffffffffffffffff81111561175a576117596126c1565b5b60405190808252806020026020018201604052801561178d57816020015b60608152602001906001900390816117785790505b5090506000600167ffffffffffffffff8111156117ad576117ac6126c1565b5b6040519080825280602002602001820160405280156117db5781602001602082028036833780820191505090505b5090506040518060400160405280600381526020017f30303000000000000000000000000000000000000000000000000000000000008152508260008151811061182857611827614015565b5b60200260200101819052506103e78160008151811061184a57611849614015565b5b6020026020010181815250508181935093505050611b3b565b8360200151611991576000600167ffffffffffffffff811115611889576118886126c1565b5b6040519080825280602002602001820160405280156118bc57816020015b60608152602001906001900390816118a75790505b5090506000600167ffffffffffffffff8111156118dc576118db6126c1565b5b60405190808252806020026020018201604052801561190a5781602001602082028036833780820191505090505b5090506040518060400160405280600681526020017f34323432343200000000000000000000000000000000000000000000000000008152508260008151811061195757611956614015565b5b602002602001018190525060008160008151811061197857611977614015565b5b6020026020010181815250508181935093505050611b3b565b60006119a68560000151606001518686610c97565b90506000815167ffffffffffffffff8111156119c5576119c46126c1565b5b6040519080825280602002602001820160405280156119f857816020015b60608152602001906001900390816119e35790505b509050600073__$533982e194a1e1b2fdbc6dbe93e4ad861f$__635022b5e96040518163ffffffff1660e01b8152600401600060405180830381865af4158015611a46573d6000803e3d6000fd5b505050506040513d6000823e3d601f19601f82011682018060405250810190611a6f91906141f1565b90508083600081518110611a8657611a85614015565b5b602002602001015160508110611a9f57611a9e614015565b5b602002015182600081518110611ab857611ab7614015565b5b60200260200101819052506000600190505b8351811015611b305781848281518110611ae757611ae6614015565b5b602002602001015160508110611b0057611aff614015565b5b6020020151838281518110611b1857611b17614015565b5b60200260200101819052508080600101915050611aca565b508183945094505050505b9250929050565b600060048260ff1611611b7f5760048260ff1614611b765760018260ff1611611b6d5761011e611b71565b6101305b611b7a565b61010c5b611b82565b60a05b9050919050565b60606000611b97848461054d565b90508060800151611ba6611243565b8260600151611bb36112ab565b611bbc85610908565b604051602001611bd095949392919061578a565b60405160208183030381529060405291505092915050565b611bf0612534565b6040518060e00160405280600060ff168152602001600160ff168152602001600260ff168152602001600560ff168152602001600860ff168152602001600960ff168152602001600a60ff16815250905090565b611c4c612579565b60008260000160008581526020019081526020016000206040518060e001604052908160008201600680602002604051908101604052809291908260068015611cd2576020028201916000905b82829054906101000a900461ffff1661ffff1681526020019060020190602082600101049283019260010382029150808411611c995790505b5050505050815260200160018201600580602002604051908101604052809291908260058015611d3d576020028201916000905b82829054906101000a900460ff1660ff1681526020019060010190602082600001049283019260010382029150808411611d065790505b5050505050815260200160028201600580602002604051908101604052809291908260058015611da8576020028201916000905b82829054906101000a900460ff1660ff1681526020019060010190602082600001049283019260010382029150808411611d715790505b505050505081526020016003820160009054906101000a900460ff1660ff1660ff1681526020016003820160019054906101000a900463ffffffff1663ffffffff1663ffffffff1681526020016003820160059054906101000a900461ffff1661ffff1661ffff1681526020016003820160079054906101000a900462ffffff1662ffffff1662ffffff16815250509050611e4884826060015185611e51565b91505092915050565b611e59612579565b60008260000160008681526020019081526020016000206040518060e001604052908160008201600680602002604051908101604052809291908260068015611edf576020028201916000905b82829054906101000a900461ffff1661ffff1681526020019060020190602082600101049283019260010382029150808411611ea65790505b5050505050815260200160018201600580602002604051908101604052809291908260058015611f4a576020028201916000905b82829054906101000a900460ff1660ff1681526020019060010190602082600001049283019260010382029150808411611f135790505b5050505050815260200160028201600580602002604051908101604052809291908260058015611fb5576020028201916000905b82829054906101000a900460ff1660ff1681526020019060010190602082600001049283019260010382029150808411611f7e5790505b505050505081526020016003820160009054906101000a900460ff1660ff1660ff1681526020016003820160019054906101000a900463ffffffff1663ffffffff1663ffffffff1681526020016003820160059054906101000a900461ffff1661ffff1661ffff1681526020016003820160079054906101000a900462ffffff1662ffffff1662ffffff1681525050905083816060019060ff16908160ff16815250508082600001819052506000836002016000836080015163ffffffff16815260200190815260200160002060000160009054906101000a90046fffffffffffffffffffffffffffffffff1690506fffffffffffffffffffffffffffffffff8016818360a001516040516020016120ce929190615970565b6040516020818303038152906040528051906020012060001c6120f19190614073565b83604001818152505060008560ff16148360c00190151590811515815250506000816fffffffffffffffffffffffffffffffff161183602001901515908115158152505060068560ff16108360800190151590811515815250508260c00151158015612160575060078560ff16105b61216b576000612197565b816000015160018661217d9190613fe0565b60ff166006811061219157612190614015565b5b60200201515b8360a0019061ffff16908161ffff16815250506121b4838661151e565b8360e0019060ff16908160ff16815250506121cf838661047e565b83610100019060ff16908160ff16815250506121e9611326565b8560ff16600881106121fe576121fd614015565b5b6020020151836060019060ff16908160ff1681525050600383604001516122259190614073565b60026122319190615acf565b83610140019060ff16908160ff1681525050600283604001516122549190614073565b83610120019060ff16908160ff168152505050509392505050565b6000818484604051602001612285929190615b3b565b6040516020818303038152906040528051906020012060001c6122a89190614073565b90509392505050565b6060600082036122f8576040518060400160405280600181526020017f30000000000000000000000000000000000000000000000000000000000000008152509050612432565b600082905060005b60008214612328578061231290615b63565b9050600a826123219190614a96565b9150612300565b60008167ffffffffffffffff811115612344576123436126c1565b5b6040519080825280601f01601f1916602001820160405280156123765781602001600182028036833780820191505090505b50905060008290505b6000861461242a576001816123949190615bab565b90506000600a80886123a69190614a96565b6123b09190614a54565b876123bb9190615bab565b60306123c79190615bdf565b905060008160f81b9050808484815181106123e5576123e4614015565b5b60200101907effffffffffffffffffffffffffffffffffffffffffffffffffffffffffffff1916908160001a905350600a886124219190614a96565b9750505061237f565b819450505050505b919050565b6000818360405160200161244b9190615c14565b6040516020818303038152906040528051906020012060001c61246e9190614073565b905092915050565b60405180610260016040528061248a612579565b8152602001606081526020016060815260200160608152602001606081526020016060815260200160608152602001600063ffffffff168152602001600061ffff168152602001600061ffff168152602001600060ff168152602001600060ff168152602001600060ff168152602001600060ff168152602001600060ff168152602001600060ff1681526020016000151581526020016000151581526020016000151581525090565b6040518060e00160405280600790602082028036833780820191505090505090565b604051806101000160405280600890602082028036833780820191505090505090565b60405180610160016040528061258d6125f2565b815260200160001515815260200160008152602001600060ff168152602001600015158152602001600061ffff168152602001600015158152602001600060ff168152602001600060ff168152602001600060ff168152602001600060ff1681525090565b6040518060e00160405280612605612653565b8152602001612612612675565b815260200161261f612675565b8152602001600060ff168152602001600063ffffffff168152602001600061ffff168152602001600062ffffff1681525090565b6040518060c00160405280600690602082028036833780820191505090505090565b6040518060a00160405280600590602082028036833780820191505090505090565b6000604051905090565b600080fd5b600080fd5b600080fd5b6000601f19601f8301169050919050565b7f4e487b7100000000000000000000000000000000000000000000000000000000600052604160045260246000fd5b6126f9826126b0565b810181811067ffffffffffffffff82111715612718576127176126c1565b5b80604052505050565b600061272b612697565b905061273782826126f0565b919050565b600080fd5b600080fd5b600067ffffffffffffffff821115612761576127606126c1565b5b602082029050919050565b600080fd5b600061ffff82169050919050565b61278881612771565b811461279357600080fd5b50565b6000813590506127a58161277f565b92915050565b60006127be6127b984612746565b612721565b905080602084028301858111156127d8576127d761276c565b5b835b8181101561280157806127ed8882612796565b8452602084019350506020810190506127da565b5050509392505050565b600082601f8301126128205761281f612741565b5b600661282d8482856127ab565b91505092915050565b600067ffffffffffffffff821115612851576128506126c1565b5b602082029050919050565b600060ff82169050919050565b6128728161285c565b811461287d57600080fd5b50565b60008135905061288f81612869565b92915050565b60006128a86128a384612836565b612721565b905080602084028301858111156128c2576128c161276c565b5b835b818110156128eb57806128d78882612880565b8452602084019350506020810190506128c4565b5050509392505050565b600082601f83011261290a57612909612741565b5b6005612917848285612895565b91505092915050565b600063ffffffff82169050919050565b61293981612920565b811461294457600080fd5b50565b60008135905061295681612930565b92915050565b600062ffffff82169050919050565b6129748161295c565b811461297f57600080fd5b50565b6000813590506129918161296b565b92915050565b600061028082840312156129ae576129ad6126ab565b5b6129b860e0612721565b905060006129c88482850161280b565b60008301525060c06129dc848285016128f5565b6020830152506101606129f1848285016128f5565b604083015250610200612a0684828501612880565b606083015250610220612a1b84828501612947565b608083015250610240612a3084828501612796565b60a083015250610260612a4584828501612982565b60c08301525092915050565b60008115159050919050565b612a6681612a51565b8114612a7157600080fd5b50565b600081359050612a8381612a5d565b92915050565b6000819050919050565b612a9c81612a89565b8114612aa757600080fd5b50565b600081359050612ab981612a93565b92915050565b60006103c08284031215612ad657612ad56126ab565b5b612ae1610160612721565b90506000612af184828501612997565b600083015250610280612b0684828501612a74565b6020830152506102a0612b1b84828501612aaa565b6040830152506102c0612b3084828501612880565b6060830152506102e0612b4584828501612a74565b608083015250610300612b5a84828501612796565b60a083015250610320612b6f84828501612a74565b60c083015250610340612b8484828501612880565b60e083015250610360612b9984828501612880565b61010083015250610380612baf84828501612880565b610120830152506103a0612bc584828501612880565b6101408301525092915050565b6000806103e08385031215612bea57612be96126a1565b5b6000612bf885828601612abf565b9250506103c0612c0a85828601612880565b9150509250929050565b612c1d8161285c565b82525050565b6000602082019050612c386000830184612c14565b92915050565b6000819050919050565b612c5181612c3e565b8114612c5c57600080fd5b50565b600081359050612c6e81612c48565b92915050565b6000806103e08385031215612c8c57612c8b6126a1565b5b6000612c9a85828601612abf565b9250506103c0612cac85828601612c5f565b9150509250929050565b600060069050919050565b600081905092915050565b6000819050919050565b612cdf81612771565b82525050565b6000612cf18383612cd6565b60208301905092915050565b6000602082019050919050565b612d1381612cb6565b612d1d8184612cc1565b9250612d2882612ccc565b8060005b83811015612d59578151612d408782612ce5565b9650612d4b83612cfd565b925050600181019050612d2c565b505050505050565b600060059050919050565b600081905092915050565b6000819050919050565b612d8a8161285c565b82525050565b6000612d9c8383612d81565b60208301905092915050565b6000602082019050919050565b612dbe81612d61565b612dc88184612d6c565b9250612dd382612d77565b8060005b83811015612e04578151612deb8782612d90565b9650612df683612da8565b925050600181019050612dd7565b505050505050565b612e1581612920565b82525050565b612e248161295c565b82525050565b61028082016000820151612e416000850182612d0a565b506020820151612e5460c0850182612db5565b506040820151612e68610160850182612db5565b506060820151612e7c610200850182612d81565b506080820151612e90610220850182612e0c565b5060a0820151612ea4610240850182612cd6565b5060c0820151612eb8610260850182612e1b565b50505050565b612ec781612a51565b82525050565b612ed681612a89565b82525050565b6103c082016000820151612ef36000850182612e2a565b506020820151612f07610280850182612ebe565b506040820151612f1b6102a0850182612ecd565b506060820151612f2f6102c0850182612d81565b506080820151612f436102e0850182612ebe565b5060a0820151612f57610300850182612cd6565b5060c0820151612f6b610320850182612ebe565b5060e0820151612f7f610340850182612d81565b50610100820151612f94610360850182612d81565b50610120820151612fa9610380850182612d81565b50610140820151612fbe6103a0850182612d81565b50505050565b600081519050919050565b600082825260208201905092915050565b6000819050602082019050919050565b6000612ffc8383612ecd565b60208301905092915050565b6000602082019050919050565b600061302082612fc4565b61302a8185612fcf565b935061303583612fe0565b8060005b8381101561306657815161304d8882612ff0565b975061305883613008565b925050600181019050613039565b5085935050505092915050565b600081519050919050565b600082825260208201905092915050565b6000819050602082019050919050565b600081519050919050565b600082825260208201905092915050565b60005b838110156130d95780820151818401526020810190506130be565b60008484015250505050565b60006130f08261309f565b6130fa81856130aa565b935061310a8185602086016130bb565b613113816126b0565b840191505092915050565b600061312a83836130e5565b905092915050565b6000602082019050919050565b600061314a82613073565b613154818561307e565b9350836020820285016131668561308f565b8060005b858110156131a25784840389528151613183858261311e565b945061318e83613132565b925060208a0199505060018101905061316a565b50829750879550505050505092915050565b6000610600830160008301516131cd6000860182612edc565b5060208301518482036103c08601526131e68282613015565b91505060408301518482036103e0860152613201828261313f565b915050606083015184820361040086015261321c82826130e5565b915050608083015184820361042086015261323782826130e5565b91505060a083015184820361044086015261325282826130e5565b91505060c083015184820361046086015261326d82826130e5565b91505060e0830151613283610480860182612e0c565b506101008301516132986104a0860182612cd6565b506101208301516132ad6104c0860182612cd6565b506101408301516132c26104e0860182612d81565b506101608301516132d7610500860182612d81565b506101808301516132ec610520860182612d81565b506101a0830151613301610540860182612d81565b506101c0830151613316610560860182612d81565b506101e083015161332b610580860182612d81565b506102008301516133406105a0860182612ebe565b506102208301516133556105c0860182612ebe565b5061024083015161336a6105e0860182612ebe565b508091505092915050565b6000602082019050818103600083015261338f81846131b4565b905092915050565b600060079050919050565b600081905092915050565b6000819050919050565b6000602082019050919050565b6133cd81613397565b6133d781846133a2565b92506133e2826133ad565b8060005b838110156134135781516133fa8782612d90565b9650613405836133b7565b9250506001810190506133e6565b505050505050565b600060e08201905061343060008301846133c4565b92915050565b600067ffffffffffffffff821115613451576134506126c1565b5b602082029050602081019050919050565b600061347561347084613436565b612721565b905080838252602082019050602084028301858111156134985761349761276c565b5b835b818110156134c157806134ad8882612aaa565b84526020840193505060208101905061349a565b5050509392505050565b600082601f8301126134e0576134df612741565b5b81356134f0848260208601613462565b91505092915050565b600067ffffffffffffffff821115613514576135136126c1565b5b602082029050602081019050919050565b600080fd5b600067ffffffffffffffff821115613545576135446126c1565b5b61354e826126b0565b9050602081019050919050565b82818337600083830152505050565b600061357d6135788461352a565b612721565b90508281526020810184848401111561359957613598613525565b5b6135a484828561355b565b509392505050565b600082601f8301126135c1576135c0612741565b5b81356135d184826020860161356a565b91505092915050565b60006135ed6135e8846134f9565b612721565b905080838252602082019050602084028301858111156136105761360f61276c565b5b835b8181101561365757803567ffffffffffffffff81111561363557613634612741565b5b80860161364289826135ac565b85526020850194505050602081019050613612565b5050509392505050565b600082601f83011261367657613675612741565b5b81356136868482602086016135da565b91505092915050565b600061060082840312156136a6576136a56126ab565b5b6136b1610260612721565b905060006136c184828501612abf565b6000830152506103c082013567ffffffffffffffff8111156136e6576136e561273c565b5b6136f2848285016134cb565b6020830152506103e082013567ffffffffffffffff8111156137175761371661273c565b5b61372384828501613661565b60408301525061040082013567ffffffffffffffff8111156137485761374761273c565b5b613754848285016135ac565b60608301525061042082013567ffffffffffffffff8111156137795761377861273c565b5b613785848285016135ac565b60808301525061044082013567ffffffffffffffff8111156137aa576137a961273c565b5b6137b6848285016135ac565b60a08301525061046082013567ffffffffffffffff8111156137db576137da61273c565b5b6137e7848285016135ac565b60c0830152506104806137fc84828501612947565b60e0830152506104a061381184828501612796565b610100830152506104c061382784828501612796565b610120830152506104e061383d84828501612880565b6101408301525061050061385384828501612880565b6101608301525061052061386984828501612880565b6101808301525061054061387f84828501612880565b6101a08301525061056061389584828501612880565b6101c0830152506105806138ab84828501612880565b6101e0830152506105a06138c184828501612a74565b610200830152506105c06138d784828501612a74565b610220830152506105e06138ed84828501612a74565b6102408301525092915050565b6000602082840312156139105761390f6126a1565b5b600082013567ffffffffffffffff81111561392e5761392d6126a6565b5b61393a8482850161368f565b91505092915050565b600081519050919050565b600082825260208201905092915050565b600061396a82613943565b613974818561394e565b93506139848185602086016130bb565b61398d816126b0565b840191505092915050565b600060208201905081810360008301526139b2818461395f565b905092915050565b600080600061040084860312156139d4576139d36126a1565b5b60006139e286828701612880565b93505060206139f386828701612abf565b9250506103e0613a0586828701612c5f565b9150509250925092565b600082825260208201905092915050565b6000613a2b82612fc4565b613a358185613a0f565b9350613a4083612fe0565b8060005b83811015613a71578151613a588882612ff0565b9750613a6383613008565b925050600181019050613a44565b5085935050505092915050565b60006020820190508181036000830152613a988184613a20565b905092915050565b600060089050919050565b600081905092915050565b6000819050919050565b6000602082019050919050565b613ad681613aa0565b613ae08184613aab565b9250613aeb82613ab6565b8060005b83811015613b1c578151613b038782612d90565b9650613b0e83613ac0565b925050600181019050613aef565b505050505050565b600061010082019050613b3a6000830184613acd565b92915050565b600067ffffffffffffffff821115613b5b57613b5a6126c1565b5b602082029050919050565b6000613b79613b7484613b40565b612721565b90508060208402830185811115613b9357613b9261276c565b5b835b81811015613bda57803567ffffffffffffffff811115613bb857613bb7612741565b5b808601613bc589826135ac565b85526020850194505050602081019050613b95565b5050509392505050565b600082601f830112613bf957613bf8612741565b5b6050613c06848285613b66565b91505092915050565b600080600060608486031215613c2857613c276126a1565b5b600084013567ffffffffffffffff811115613c4657613c456126a6565b5b613c528682870161368f565b9350506020613c6386828701612aaa565b925050604084013567ffffffffffffffff811115613c8457613c836126a6565b5b613c9086828701613be4565b9150509250925092565b600060208284031215613cb057613caf6126a1565b5b6000613cbe84828501612880565b91505092915050565b613cd081612771565b82525050565b6000602082019050613ceb6000830184613cc7565b92915050565b600082825260208201905092915050565b6000613d0d8261309f565b613d178185613cf1565b9350613d278185602086016130bb565b613d30816126b0565b840191505092915050565b60006020820190508181036000830152613d558184613d02565b905092915050565b600082825260208201905092915050565b6000613d7982613073565b613d838185613d5d565b935083602082028501613d958561308f565b8060005b85811015613dd15784840389528151613db2858261311e565b9450613dbd83613132565b925060208a01995050600181019050613d99565b50829750879550505050505092915050565b60006040820190508181036000830152613dfd8185613d6e565b90508181036020830152613e118184613a20565b90509392505050565b60008060408385031215613e3157613e306126a1565b5b6000613e3f85828601612aaa565b9250506020613e5085828601612c5f565b9150509250929050565b6103c082016000820151613e716000850182612e2a565b506020820151613e85610280850182612ebe565b506040820151613e996102a0850182612ecd565b506060820151613ead6102c0850182612d81565b506080820151613ec16102e0850182612ebe565b5060a0820151613ed5610300850182612cd6565b5060c0820151613ee9610320850182612ebe565b5060e0820151613efd610340850182612d81565b50610100820151613f12610360850182612d81565b50610120820151613f27610380850182612d81565b50610140820151613f3c6103a0850182612d81565b50505050565b60006103c082019050613f586000830184613e5a565b92915050565b600080600060608486031215613f7757613f766126a1565b5b6000613f8586828701612aaa565b9350506020613f9686828701612880565b9250506040613fa786828701612c5f565b9150509250925092565b7f4e487b7100000000000000000000000000000000000000000000000000000000600052601160045260246000fd5b6000613feb8261285c565b9150613ff68361285c565b9250828203905060ff81111561400f5761400e613fb1565b5b92915050565b7f4e487b7100000000000000000000000000000000000000000000000000000000600052603260045260246000fd5b7f4e487b7100000000000000000000000000000000000000000000000000000000600052601260045260246000fd5b600061407e82612a89565b915061408983612a89565b92508261409957614098614044565b5b828206905092915050565b60006140af82612a89565b91506140ba83612a89565b92508282019050808211156140d2576140d1613fb1565b5b92915050565b60006140eb6140e68461352a565b612721565b90508281526020810184848401111561410757614106613525565b5b6141128482856130bb565b509392505050565b600082601f83011261412f5761412e612741565b5b815161413f8482602086016140d8565b91505092915050565b600061415b61415684613b40565b612721565b905080602084028301858111156141755761417461276c565b5b835b818110156141bc57805167ffffffffffffffff81111561419a57614199612741565b5b8086016141a7898261411a565b85526020850194505050602081019050614177565b5050509392505050565b600082601f8301126141db576141da612741565b5b60506141e8848285614148565b91505092915050565b600060208284031215614207576142066126a1565b5b600082015167ffffffffffffffff811115614225576142246126a6565b5b614231848285016141c6565b91505092915050565b60006142458261285c565b91506142508361285c565b9250826142605761425f614044565b5b828206905092915050565b600061427682612771565b915061428183612771565b9250828201905061ffff81111561429b5761429a613fb1565b5b92915050565b60006142ac8261285c565b91506142b78361285c565b9250826142c7576142c6614044565b5b828204905092915050565b60006142dd8261285c565b91506142e88361285c565b92508282026142f68161285c565b915080821461430857614307613fb1565b5b5092915050565b600061431a82612771565b915061432583612771565b9250828203905061ffff81111561433f5761433e613fb1565b5b92915050565b600081905092915050565b7f3c67207472616e73666f726d3d227472616e736c617465280000000000000000600082015250565b6000614386601883614345565b915061439182614350565b601882019050919050565b60006143a78261309f565b6143b18185614345565b93506143c18185602086016130bb565b80840191505092915050565b7f2c20000000000000000000000000000000000000000000000000000000000000600082015250565b6000614403600283614345565b915061440e826143cd565b600282019050919050565b7f29223e0000000000000000000000000000000000000000000000000000000000600082015250565b600061444f600383614345565b915061445a82614419565b600382019050919050565b7f3c67207472616e73666f726d3d227472616e736c61746528332c20332920736360008201527f616c652800000000000000000000000000000000000000000000000000000000602082015250565b60006144c1602483614345565b91506144cc82614465565b602482019050919050565b7f3c7061746820643d224d322e35373620392e38353463312e3135322d322e363460008201527f362e33332d332e39373220312e3831382d352e343643352e38383220322e393060208201527f3520372e373520332e323520392e38353420322e3537352031322e323520312e60408201527f32352031322e3839352030203135203063322e313035203020322e373520312e60608201527f3520352e31343720322e35373663312e3835332e38333220332e3937312e333360808201527f20352e343620312e3831374332372e30393520352e3838322032362e3520372e60a08201527f32352032372e34323520392e3835342032382e3039382031312e37352033302060c08201527f31322e383935203330203135633020322e3130352d312e373520332e352d322e60e08201527f35373620352e313437632d2e38323520312e3634362d2e333320332e3937312d6101008201527f312e38313820352e34364332342e3131382032372e3039352032322e352032366101208201527f2e352032302e3134372032372e3432352031382e32352032382e31372031372e6101408201527f313035203330203135203330632d322e31303520302d332e32352d312e352d356101608201527f2e3134362d322e353736632d312e3839362d312e3037352d332e3937322d2e336101808201527f332d352e34362d312e38313843322e3930352032342e31313820332e323520326101a08201527f322e323520322e3537362032302e31343720312e3930312031382e30343320306101c08201527f2031372e313035203020313563302d322e31303520312e3432342d322e3520326101e08201527f2e3537362d352e3134365a222066696c6c3d222300000000000000000000000061020082015250565b600061477761021483614345565b9150614782826144d7565b61021482019050919050565b7f2200000000000000000000000000000000000000000000000000000000000000600082015250565b60006147c4600183614345565b91506147cf8261478e565b600182019050919050565b600081905092915050565b60006147f082613943565b6147fa81856147da565b935061480a8185602086016130bb565b80840191505092915050565b7f2f3e000000000000000000000000000000000000000000000000000000000000600082015250565b600061484c600283614345565b915061485782614816565b600282019050919050565b7f3c7061746820643d224d31332e3733362032312e355631322e3333386c2d332e60008201527f333820332e3339332d312e3735352d312e37344c31352e30303420372e366c3660208201527f2e333920362e33392d312e37323720312e37342d332e3339342d332e3339335660408201527f32312e35682d322e3533375a222066696c6c3d22626c61636b222f3e00000000606082015250565b600061490a607c83614345565b915061491582614862565b607c82019050919050565b7f3c2f673e00000000000000000000000000000000000000000000000000000000600082015250565b6000614956600483614345565b915061496182614920565b600482019050919050565b600061497782614379565b9150614983828861439c565b915061498e826143f6565b915061499a828761439c565b91506149a582614442565b91506149b0826144b4565b91506149bc828661439c565b91506149c782614442565b91506149d282614769565b91506149de828561439c565b91506149e9826147b7565b91506149f582846147e5565b9150614a008261483f565b9150614a0b826148fd565b9150614a1682614949565b9150614a2182614949565b91508190509695505050505050565b6000614a3c82856147e5565b9150614a4882846147e5565b91508190509392505050565b6000614a5f82612a89565b9150614a6a83612a89565b9250828202614a7881612a89565b91508282048414831517614a8f57614a8e613fb1565b5b5092915050565b6000614aa182612a89565b9150614aac83612a89565b925082614abc57614abb614044565b5b828204905092915050565b7f3c75736520687265663d22237371756172652220783d22000000000000000000600082015250565b6000614afd601783614345565b9150614b0882614ac7565b601782019050919050565b7f2220793d22313630222f3e000000000000000000000000000000000000000000600082015250565b6000614b49600b83614345565b9150614b5482614b13565b600b82019050919050565b6000614b6b82856147e5565b9150614b7682614af0565b9150614b82828461439c565b9150614b8d82614b3c565b91508190509392505050565b7f3c75736520687265663d2223726f772220793d22000000000000000000000000600082015250565b6000614bcf601483614345565b9150614bda82614b99565b601482019050919050565b7f222f3e0000000000000000000000000000000000000000000000000000000000600082015250565b6000614c1b600383614345565b9150614c2682614be5565b600382019050919050565b6000614c3d82856147e5565b9150614c4882614bc2565b9150614c54828461439c565b9150614c5f82614c0e565b91508190509392505050565b7f3c672069643d22677269642220783d223139362220793d22313630223e000000600082015250565b6000614ca1601d83614345565b9150614cac82614c6b565b601d82019050919050565b6000614cc282614c94565b9150614cce82846147e5565b9150614cd982614949565b915081905092915050565b7f2300000000000000000000000000000000000000000000000000000000000000600082015250565b6000614d1a600183614345565b9150614d2582614ce4565b600182019050919050565b7f3b00000000000000000000000000000000000000000000000000000000000000600082015250565b6000614d66600183614345565b9150614d7182614d30565b600182019050919050565b6000614d8882856147e5565b9150614d9382614d0d565b9150614d9f828461439c565b9150614daa82614d59565b91508190509392505050565b6000614dc282856147e5565b9150614dcd82614d0d565b9150614dd9828461439c565b91508190509392505050565b7f3c616e696d617465200000000000000000000000000000000000000000000000600082015250565b6000614e1b600983614345565b9150614e2682614de5565b600982019050919050565b7f6174747269627574654e616d653d2266696c6c222076616c7565733d22000000600082015250565b6000614e67601d83614345565b9150614e7282614e31565b601d82019050919050565b7f2220000000000000000000000000000000000000000000000000000000000000600082015250565b6000614eb3600283614345565b9150614ebe82614e7d565b600282019050919050565b7f6475723d22000000000000000000000000000000000000000000000000000000600082015250565b6000614eff600583614345565b9150614f0a82614ec9565b600582019050919050565b7f732220626567696e3d22616e696d6174696f6e2e626567696e22200000000000600082015250565b6000614f4b601b83614345565b9150614f5682614f15565b601b82019050919050565b7f726570656174436f756e743d22696e646566696e697465222000000000000000600082015250565b6000614f97601983614345565b9150614fa282614f61565b601982019050919050565b6000614fb882614e0e565b9150614fc382614e5a565b9150614fcf82856147e5565b9150614fda82614ea6565b9150614fe582614ef2565b9150614ff1828461439c565b9150614ffc82614f3e565b915061500782614f8a565b91506150128261483f565b91508190509392505050565b7f3c73766720000000000000000000000000000000000000000000000000000000600082015250565b6000615054600583614345565b915061505f8261501e565b600582019050919050565b7f76696577426f783d223020302036383020363830222000000000000000000000600082015250565b60006150a0601683614345565b91506150ab8261506a565b601682019050919050565b7f66696c6c3d226e6f6e652220786d6c6e733d22687474703a2f2f7777772e773360008201527f2e6f72672f323030302f73766722200000000000000000000000000000000000602082015250565b6000615112602f83614345565b915061511d826150b6565b602f82019050919050565b7f7374796c653d2277696474683a313030253b6261636b67726f756e643a626c6160008201527f636b3b2200000000000000000000000000000000000000000000000000000000602082015250565b6000615184602483614345565b915061518f82615128565b602482019050919050565b7f3e00000000000000000000000000000000000000000000000000000000000000600082015250565b60006151d0600183614345565b91506151db8261519a565b600182019050919050565b7f3c646566733e0000000000000000000000000000000000000000000000000000600082015250565b600061521c600683614345565b9150615227826151e6565b600682019050919050565b7f3c726563742069643d22737175617265222077696474683d223336222068656960008201527f6768743d22333622207374726f6b653d22000000000000000000000000000000602082015250565b600061528e603183614345565b915061529982615232565b603182019050919050565b7f223e3c2f726563743e0000000000000000000000000000000000000000000000600082015250565b60006152da600983614345565b91506152e5826152a4565b600982019050919050565b7f3c672069643d22726f77223e0000000000000000000000000000000000000000600082015250565b6000615326600c83614345565b9150615331826152f0565b600c82019050919050565b7f3c2f673e3c2f646566733e000000000000000000000000000000000000000000600082015250565b6000615372600b83614345565b915061537d8261533c565b600b82019050919050565b7f3c726563742077696474683d2236383022206865696768743d2236383022206660008201527f696c6c3d22626c61636b222f3e00000000000000000000000000000000000000602082015250565b60006153e4602d83614345565b91506153ef82615388565b602d82019050919050565b7f3c7265637420783d223138382220793d22313532222077696474683d2233303460008201527f22206865696768743d22333736222066696c6c3d220000000000000000000000602082015250565b6000615456603583614345565b9150615461826153fa565b603582019050919050565b7f3c726563742077696474683d2236383022206865696768743d2236383022206660008201527f696c6c3d227472616e73706172656e74223e0000000000000000000000000000602082015250565b60006154c8603283614345565b91506154d38261546c565b603282019050919050565b7f6174747269627574654e616d653d227769647468222000000000000000000000600082015250565b6000615514601683614345565b915061551f826154de565b601682019050919050565b7f66726f6d3d223638302220000000000000000000000000000000000000000000600082015250565b6000615560600b83614345565b915061556b8261552a565b600b82019050919050565b7f746f3d2230222000000000000000000000000000000000000000000000000000600082015250565b60006155ac600783614345565b91506155b782615576565b600782019050919050565b7f6475723d22302e32732220000000000000000000000000000000000000000000600082015250565b60006155f8600b83614345565b9150615603826155c2565b600b82019050919050565b7f626567696e3d22636c69636b2220000000000000000000000000000000000000600082015250565b6000615644600e83614345565b915061564f8261560e565b600e82019050919050565b7f66696c6c3d22667265657a652220000000000000000000000000000000000000600082015250565b6000615690600e83614345565b915061569b8261565a565b600e82019050919050565b7f69643d22616e696d6174696f6e22000000000000000000000000000000000000600082015250565b60006156dc600e83614345565b91506156e7826156a6565b600e82019050919050565b7f3c2f726563743e00000000000000000000000000000000000000000000000000600082015250565b6000615728600783614345565b9150615733826156f2565b600782019050919050565b7f3c2f7376673e0000000000000000000000000000000000000000000000000000600082015250565b6000615774600683614345565b915061577f8261573e565b600682019050919050565b600061579582615047565b91506157a082615093565b91506157ab82615105565b91506157b682615177565b91506157c1826151c3565b91506157cc8261520f565b91506157d782615281565b91506157e3828861439c565b91506157ee826152cd565b91506157f982615319565b915061580582876147e5565b915061581082615365565b915061581b826153d7565b915061582682615449565b9150615832828661439c565b915061583d82614c0e565b915061584982856147e5565b915061585582846147e5565b9150615860826154bb565b915061586b82614e0e565b915061587682615507565b915061588182615553565b915061588c8261559f565b9150615897826155eb565b91506158a282615637565b91506158ad82615683565b91506158b8826156cf565b91506158c38261483f565b91506158ce8261571b565b91506158d982615767565b91508190509695505050505050565b60006fffffffffffffffffffffffffffffffff82169050919050565b60008160801b9050919050565b600061591c82615904565b9050919050565b61593461592f826158e8565b615911565b82525050565b60008160f01b9050919050565b60006159528261593a565b9050919050565b61596a61596582612771565b615947565b82525050565b600061597c8285615923565b60108201915061598c8284615959565b6002820191508190509392505050565b60008160011c9050919050565b6000808291508390505b60018511156159f3578086048111156159cf576159ce613fb1565b5b60018516156159de5780820291505b80810290506159ec8561599c565b94506159b3565b94509492505050565b600082615a0c5760019050615ac8565b81615a1a5760009050615ac8565b8160018114615a305760028114615a3a57615a69565b6001915050615ac8565b60ff841115615a4c57615a4b613fb1565b5b8360020a915084821115615a6357615a62613fb1565b5b50615ac8565b5060208310610133831016604e8410600b8410161715615a9e5782820a905083811115615a9957615a98613fb1565b5b615ac8565b615aab84848460016159a9565b92509050818404811115615ac257615ac1613fb1565b5b81810290505b9392505050565b6000615ada82612a89565b9150615ae583612a89565b9250615b127fffffffffffffffffffffffffffffffffffffffffffffffffffffffffffffffff84846159fc565b905092915050565b6000819050919050565b615b35615b3082612a89565b615b1a565b82525050565b6000615b478285615b24565b602082019150615b57828461439c565b91508190509392505050565b6000615b6e82612a89565b91507fffffffffffffffffffffffffffffffffffffffffffffffffffffffffffffffff8203615ba057615b9f613fb1565b5b600182019050919050565b6000615bb682612a89565b9150615bc183612a89565b9250828203905081811115615bd957615bd8613fb1565b5b92915050565b6000615bea8261285c565b9150615bf58361285c565b9250828201905060ff811115615c0e57615c0d613fb1565b5b92915050565b6000615c208284615b24565b6020820191508190509291505056fe4d352e3135312031392e37303763322e3330342d352e3239322e3635392d372e39343320332e3633362d31302e39324331312e37363420352e38312031352e3520362e352031392e37303720352e31352032342e3520322e352032352e37392030203330203063342e3231203020352e3520332031302e32393320352e31353120332e37303720312e36363420372e3934332e3635392031302e393220332e3633354335342e31392031312e3736342035332031342e352035342e3834392031392e3730372035362e3139362032332e352036302032352e3739203630203330633020342e32312d332e3520372d352e3135312031302e3239332d312e36353120332e3239322d2e36353920372e3934332d332e3633362031302e39324334382e3233362035342e31392034352035332034302e3239332035342e3834392033362e352035362e3333392033342e3231203630203330203630632d342e323120302d362e352d332d31302e3239332d352e3135312d332e3739322d322e3135312d372e3934332d2e3635392d31302e39322d332e36333643352e38312034382e32333620362e352034342e3520352e3135312034302e32393320332e3830322033362e30383520302033342e3231203020333063302d342e323120322e3834372d3520352e3135312d31302e3239335aa264697066735822122053f74e9173522e9cfcde1254b5dcf2489bafca594d921983f460dd8ce513f96f64736f6c634300081c0033",
  "linkReferences": {
    "contracts/libraries/EightyColors.sol": {
      "EightyColors": [
        {
          "length": 20,
          "start": 2401
        },
        {
          "length": 20,
          "start": 6737
        }
      ]
    }
  },
  "deployedLinkReferences": {
    "contracts/libraries/EightyColors.sol": {
      "EightyColors": [
        {
          "length": 20,
          "start": 2319
        },
        {
          "length": 20,
          "start": 6655
        }
      ]
    }
  }
}